{
  "address": "0xd4acfdB2828B628079C7F5aBABbbA9b48e0bA939",
  "abi": [
    {
      "inputs": [
        {
          "internalType": "string",
          "name": "name",
          "type": "string"
        }
      ],
      "name": "getContractAddress",
      "outputs": [
        {
          "internalType": "address",
          "name": "",
          "type": "address"
        }
      ],
      "stateMutability": "view",
      "type": "function"
    },
    {
      "inputs": [
        {
          "internalType": "string",
          "name": "name",
          "type": "string"
        },
        {
          "internalType": "address",
          "name": "addr",
          "type": "address"
        },
        {
          "internalType": "uint16",
          "name": "ver",
          "type": "uint16"
        }
      ],
      "name": "registerContract",
      "outputs": [
        {
          "internalType": "bool",
          "name": "",
          "type": "bool"
        }
      ],
      "stateMutability": "nonpayable",
      "type": "function"
    }
  ],
  "transactionHash": "0x0a3dbec989a8a0ce675bf1a790ad4a322cd6de7ce0128ead2d1f7df283c7a652",
  "args": [],
  "solcInputHash": "d1a4b93a0d9def37fcb4aeff0bbf967a",
  "bytecode": "0x608060405234801561001057600080fd5b506104e1806100206000396000f3fe608060405234801561001057600080fd5b50600436106100365760003560e01c806304433bbc1461003b578063788c02ef1461006b575b600080fd5b61004e610049366004610368565b61008e565b6040516001600160a01b0390911681526020015b60405180910390f35b61007e6100793660046103a3565b6100c1565b6040519015158152602001610062565b6000808260405161009f9190610416565b908152604051908190036020019020600101546001600160a01b031692915050565b60006100d1565b60405180910390fd5b600080856040516100e29190610416565b908152604080516020928190038301812060608201835280546001600160a01b0390811680845260019092015490811694830194909452600160a01b90930461ffff1691810191909152915033146101705760405162461bcd60e51b8152602060048201526011602482015270796f752063616e277420646f207468697360781b60448201526064016100c8565b60208101516001600160a01b03166101e2576101b46040518060400160405280601181526020017018dc99585d1a5b99c81b995dc81cda1a5d607a1b81525061027a565b50604080516060810182523381526001600160a01b038516602082015261ffff8416918101919091526101fc565b61ffff831660408201526001600160a01b03841660208201525b8060008660405161020d9190610416565b9081526040805160209281900383019020835181546001600160a01b0319166001600160a01b039182161782559284015160019182018054959093015193166001600160b01b031990941693909317600160a01b61ffff9093169290920291909117905595945050505050565b6102bd8160405160240161028e9190610432565b60408051601f198184030181529190526020810180516001600160e01b031663104c13eb60e21b1790526102c0565b50565b80516a636f6e736f6c652e6c6f67602083016000808483855afa5050505050565b600082601f8301126102f1578081fd5b813567ffffffffffffffff8082111561030c5761030c610495565b604051601f8301601f19908116603f0116810190828211818310171561033457610334610495565b8160405283815286602085880101111561034c578485fd5b8360208701602083013792830160200193909352509392505050565b600060208284031215610379578081fd5b813567ffffffffffffffff81111561038f578182fd5b61039b848285016102e1565b949350505050565b6000806000606084860312156103b7578182fd5b833567ffffffffffffffff8111156103cd578283fd5b6103d9868287016102e1565b93505060208401356001600160a01b03811681146103f5578283fd5b9150604084013561ffff8116811461040b578182fd5b809150509250925092565b60008251610428818460208701610465565b9190910192915050565b6020815260008251806020840152610451816040850160208701610465565b601f01601f19169190910160400192915050565b60005b83811015610480578181015183820152602001610468565b8381111561048f576000848401525b50505050565b634e487b7160e01b600052604160045260246000fdfea2646970667358221220e2fc9512382fdb1b7a06a8550212512e61faddebda28c9aa216c71837c584f0964736f6c63430008040033",
  "devdoc": {
    "author": ":                                   @ bretth18 / @ computerdata for Friends With Benefits.",
    "kind": "dev",
    "methods": {},
    "title": ":                                   \"FWBProtocolRegistry\"",
    "version": 1
  },
  "userdoc": {
    "kind": "user",
    "methods": {},
    "notice": "___  __    __  ___    ___           _                  _   __            _     _               / __\\/ / /\\ \\ \\/ __\\  / _ \\_ __ ___ | |_ ___   ___ ___ | | /__\\ ___  __ _(_)___| |_ _ __ _   _  / _\\  \\ \\/  \\/ /__\\// / /_)/ '__/ _ \\| __/ _ \\ / __/ _ \\| |/ \\/// _ \\/ _` | / __| __| '__| | | | / /     \\  /\\  / \\/  \\/ ___/| | | (_) | || (_) | (_| (_) | / _  \\  __/ (_| | \\__ \\ |_| |  | |_| | \\/       \\/  \\/\\_____/\\/    |_|  \\___/ \\__\\___/ \\___\\___/|_\\/ \\_/\\___|\\__, |_|___/\\__|_|   \\__, | |___/                |___/  ------------------------------------------------------------------------------------------------- \"FWBProtocolRegistry\"   :                                   central on-chain registry of all FWB protocol related contracts deployed on the ethereum mainnet.",
    "version": 1
  },
  "storageLayout": {
    "storage": [
      {
        "astId": 3382,
        "contract": "contracts/FWBProtocolRegistry.sol:FWBProtocolRegistry",
        "label": "registry",
        "offset": 0,
        "slot": "0",
        "type": "t_mapping(t_string_memory_ptr,t_struct(ContractRegister)3376_storage)"
      }
    ],
    "types": {
      "t_address": {
        "encoding": "inplace",
        "label": "address",
        "numberOfBytes": "20"
      },
      "t_mapping(t_string_memory_ptr,t_struct(ContractRegister)3376_storage)": {
        "encoding": "mapping",
        "key": "t_string_memory_ptr",
        "label": "mapping(string => struct FWBProtocolRegistry.ContractRegister)",
        "numberOfBytes": "32",
        "value": "t_struct(ContractRegister)3376_storage"
      },
      "t_string_memory_ptr": {
        "encoding": "bytes",
        "label": "string",
        "numberOfBytes": "32"
      },
      "t_struct(ContractRegister)3376_storage": {
        "encoding": "inplace",
        "label": "struct FWBProtocolRegistry.ContractRegister",
        "members": [
          {
            "astId": 3371,
            "contract": "contracts/FWBProtocolRegistry.sol:FWBProtocolRegistry",
            "label": "owner",
            "offset": 0,
            "slot": "0",
            "type": "t_address"
          },
          {
            "astId": 3373,
            "contract": "contracts/FWBProtocolRegistry.sol:FWBProtocolRegistry",
            "label": "contractAddress",
            "offset": 0,
            "slot": "1",
            "type": "t_address"
          },
          {
            "astId": 3375,
            "contract": "contracts/FWBProtocolRegistry.sol:FWBProtocolRegistry",
            "label": "version",
            "offset": 20,
            "slot": "1",
            "type": "t_uint16"
          }
        ],
        "numberOfBytes": "64"
      },
      "t_uint16": {
        "encoding": "inplace",
        "label": "uint16",
        "numberOfBytes": "2"
      }
    }
  }
}