{
  "address": "0x58685D02E90825bCa87929Bb207A0560A8815c79",
  "abi": [
    {
      "inputs": [],
      "stateMutability": "nonpayable",
      "type": "constructor"
    },
    {
      "anonymous": false,
      "inputs": [
        {
          "indexed": true,
          "internalType": "address",
          "name": "owner",
          "type": "address"
        },
        {
          "indexed": true,
          "internalType": "address",
          "name": "approved",
          "type": "address"
        },
        {
          "indexed": true,
          "internalType": "uint256",
          "name": "tokenId",
          "type": "uint256"
        }
      ],
      "name": "Approval",
      "type": "event"
    },
    {
      "anonymous": false,
      "inputs": [
        {
          "indexed": true,
          "internalType": "address",
          "name": "owner",
          "type": "address"
        },
        {
          "indexed": true,
          "internalType": "address",
          "name": "operator",
          "type": "address"
        },
        {
          "indexed": false,
          "internalType": "bool",
          "name": "approved",
          "type": "bool"
        }
      ],
      "name": "ApprovalForAll",
      "type": "event"
    },
    {
      "anonymous": false,
      "inputs": [
        {
          "indexed": true,
          "internalType": "address",
          "name": "previousOwner",
          "type": "address"
        },
        {
          "indexed": true,
          "internalType": "address",
          "name": "newOwner",
          "type": "address"
        }
      ],
      "name": "OwnershipTransferred",
      "type": "event"
    },
    {
      "anonymous": false,
      "inputs": [
        {
          "indexed": true,
          "internalType": "address",
          "name": "from",
          "type": "address"
        },
        {
          "indexed": true,
          "internalType": "address",
          "name": "to",
          "type": "address"
        },
        {
          "indexed": true,
          "internalType": "uint256",
          "name": "tokenId",
          "type": "uint256"
        }
      ],
      "name": "Transfer",
      "type": "event"
    },
    {
      "inputs": [
        {
          "internalType": "address",
          "name": "to",
          "type": "address"
        },
        {
          "internalType": "uint256",
          "name": "tokenId",
          "type": "uint256"
        }
      ],
      "name": "approve",
      "outputs": [],
      "stateMutability": "nonpayable",
      "type": "function"
    },
    {
      "inputs": [
        {
          "internalType": "address",
          "name": "owner",
          "type": "address"
        }
      ],
      "name": "balanceOf",
      "outputs": [
        {
          "internalType": "uint256",
          "name": "",
          "type": "uint256"
        }
      ],
      "stateMutability": "view",
      "type": "function"
    },
    {
      "inputs": [],
      "name": "baseURI",
      "outputs": [
        {
          "internalType": "string",
          "name": "",
          "type": "string"
        }
      ],
      "stateMutability": "view",
      "type": "function"
    },
    {
      "inputs": [
        {
          "internalType": "uint256",
          "name": "tokenId",
          "type": "uint256"
        }
      ],
      "name": "getApproved",
      "outputs": [
        {
          "internalType": "address",
          "name": "",
          "type": "address"
        }
      ],
      "stateMutability": "view",
      "type": "function"
    },
    {
      "inputs": [
        {
          "internalType": "address",
          "name": "owner",
          "type": "address"
        },
        {
          "internalType": "address",
          "name": "operator",
          "type": "address"
        }
      ],
      "name": "isApprovedForAll",
      "outputs": [
        {
          "internalType": "bool",
          "name": "",
          "type": "bool"
        }
      ],
      "stateMutability": "view",
      "type": "function"
    },
    {
      "inputs": [],
      "name": "mint",
      "outputs": [],
      "stateMutability": "nonpayable",
      "type": "function"
    },
    {
      "inputs": [],
      "name": "name",
      "outputs": [
        {
          "internalType": "string",
          "name": "",
          "type": "string"
        }
      ],
      "stateMutability": "view",
      "type": "function"
    },
    {
      "inputs": [],
      "name": "owner",
      "outputs": [
        {
          "internalType": "address",
          "name": "",
          "type": "address"
        }
      ],
      "stateMutability": "view",
      "type": "function"
    },
    {
      "inputs": [
        {
          "internalType": "uint256",
          "name": "tokenId",
          "type": "uint256"
        }
      ],
      "name": "ownerOf",
      "outputs": [
        {
          "internalType": "address",
          "name": "",
          "type": "address"
        }
      ],
      "stateMutability": "view",
      "type": "function"
    },
    {
      "inputs": [],
      "name": "renounceOwnership",
      "outputs": [],
      "stateMutability": "nonpayable",
      "type": "function"
    },
    {
      "inputs": [
        {
          "internalType": "address",
          "name": "from",
          "type": "address"
        },
        {
          "internalType": "address",
          "name": "to",
          "type": "address"
        },
        {
          "internalType": "uint256",
          "name": "tokenId",
          "type": "uint256"
        }
      ],
      "name": "safeTransferFrom",
      "outputs": [],
      "stateMutability": "nonpayable",
      "type": "function"
    },
    {
      "inputs": [
        {
          "internalType": "address",
          "name": "from",
          "type": "address"
        },
        {
          "internalType": "address",
          "name": "to",
          "type": "address"
        },
        {
          "internalType": "uint256",
          "name": "tokenId",
          "type": "uint256"
        },
        {
          "internalType": "bytes",
          "name": "_data",
          "type": "bytes"
        }
      ],
      "name": "safeTransferFrom",
      "outputs": [],
      "stateMutability": "nonpayable",
      "type": "function"
    },
    {
      "inputs": [
        {
          "internalType": "address",
          "name": "operator",
          "type": "address"
        },
        {
          "internalType": "bool",
          "name": "approved",
          "type": "bool"
        }
      ],
      "name": "setApprovalForAll",
      "outputs": [],
      "stateMutability": "nonpayable",
      "type": "function"
    },
    {
      "inputs": [
        {
          "internalType": "string",
          "name": "newURI",
          "type": "string"
        }
      ],
      "name": "setBaseURI",
      "outputs": [],
      "stateMutability": "nonpayable",
      "type": "function"
    },
    {
      "inputs": [
        {
          "internalType": "bytes4",
          "name": "interfaceId",
          "type": "bytes4"
        }
      ],
      "name": "supportsInterface",
      "outputs": [
        {
          "internalType": "bool",
          "name": "",
          "type": "bool"
        }
      ],
      "stateMutability": "view",
      "type": "function"
    },
    {
      "inputs": [],
      "name": "symbol",
      "outputs": [
        {
          "internalType": "string",
          "name": "",
          "type": "string"
        }
      ],
      "stateMutability": "view",
      "type": "function"
    },
    {
      "inputs": [
        {
          "internalType": "uint256",
          "name": "tokenId",
          "type": "uint256"
        }
      ],
      "name": "tokenURI",
      "outputs": [
        {
          "internalType": "string",
          "name": "",
          "type": "string"
        }
      ],
      "stateMutability": "view",
      "type": "function"
    },
    {
      "inputs": [
        {
          "internalType": "address",
          "name": "from",
          "type": "address"
        },
        {
          "internalType": "address",
          "name": "to",
          "type": "address"
        },
        {
          "internalType": "uint256",
          "name": "tokenId",
          "type": "uint256"
        }
      ],
      "name": "transferFrom",
      "outputs": [],
      "stateMutability": "nonpayable",
      "type": "function"
    },
    {
      "inputs": [
        {
          "internalType": "address",
          "name": "newOwner",
          "type": "address"
        }
      ],
      "name": "transferOwnership",
      "outputs": [],
      "stateMutability": "nonpayable",
      "type": "function"
    }
  ],
  "transactionHash": "0x004657fd75e6c266731fd6ad12a7e80187d3a0a3997a212fd0761b6083d5fa4a",
  "args": [],
  "solcInputHash": "d1a4b93a0d9def37fcb4aeff0bbf967a",
  "bytecode": "0x60806040523480156200001157600080fd5b50604080518082018252601581527f465742204d656d6265722050726f66696c65207630000000000000000000000060208083019182528351808501909452600784526604657424d5076360cc1b908401528151919291620000769160009162000105565b5080516200008c90600190602084019062000105565b505050620000a9620000a3620000af60201b60201c565b620000b3565b620001e8565b3390565b600780546001600160a01b038381166001600160a01b0319831681179093556040519116919082907f8be0079c531659141344cd1fd0a4f28419497f9722a3daafe3b4186f6b6457e090600090a35050565b8280546200011390620001ab565b90600052602060002090601f01602090048101928262000137576000855562000182565b82601f106200015257805160ff191683800117855562000182565b8280016001018555821562000182579182015b828111156200018257825182559160200191906001019062000165565b506200019092915062000194565b5090565b5b8082111562000190576000815560010162000195565b600181811c90821680620001c057607f821691505b60208210811415620001e257634e487b7160e01b600052602260045260246000fd5b50919050565b61192880620001f86000396000f3fe608060405234801561001057600080fd5b50600436106101215760003560e01c80636c0360eb116100ad578063a22cb46511610071578063a22cb46514610241578063b88d4fde14610254578063c87b56dd14610267578063e985e9c51461027a578063f2fde38b146102b657600080fd5b80636c0360eb146101f757806370a08231146101ff578063715018a6146102205780638da5cb5b1461022857806395d89b411461023957600080fd5b80631249c58b116100f45780631249c58b146101a357806323b872dd146101ab57806342842e0e146101be57806355f804b3146101d15780636352211e146101e457600080fd5b806301ffc9a71461012657806306fdde031461014e578063081812fc14610163578063095ea7b31461018e575b600080fd5b6101396101343660046115a8565b6102c9565b60405190151581526020015b60405180910390f35b61015661031b565b60405161014591906116d6565b610176610171366004611626565b6103ad565b6040516001600160a01b039091168152602001610145565b6101a161019c36600461157f565b610447565b005b6101a161055d565b6101a16101b9366004611491565b61057f565b6101a16101cc366004611491565b6105b0565b6101a16101df3660046115e0565b6105cb565b6101766101f2366004611626565b61060c565b610156610683565b61021261020d366004611445565b610711565b604051908152602001610145565b6101a1610798565b6007546001600160a01b0316610176565b6101566107cc565b6101a161024f366004611545565b6107db565b6101a16102623660046114cc565b6108a0565b610156610275366004611626565b6108d8565b61013961028836600461145f565b6001600160a01b03918216600090815260056020908152604080832093909416825291909152205460ff1690565b6101a16102c4366004611445565b6108e3565b60006001600160e01b031982166380ac58cd60e01b14806102fa57506001600160e01b03198216635b5e139f60e01b145b8061031557506301ffc9a760e01b6001600160e01b03198316145b92915050565b60606000805461032a90611830565b80601f016020809104026020016040519081016040528092919081815260200182805461035690611830565b80156103a35780601f10610378576101008083540402835291602001916103a3565b820191906000526020600020905b81548152906001019060200180831161038657829003601f168201915b5050505050905090565b6000818152600260205260408120546001600160a01b031661042b5760405162461bcd60e51b815260206004820152602c60248201527f4552433732313a20617070726f76656420717565727920666f72206e6f6e657860448201526b34b9ba32b73a103a37b5b2b760a11b60648201526084015b60405180910390fd5b506000908152600460205260409020546001600160a01b031690565b60006104528261060c565b9050806001600160a01b0316836001600160a01b031614156104c05760405162461bcd60e51b815260206004820152602160248201527f4552433732313a20617070726f76616c20746f2063757272656e74206f776e656044820152603960f91b6064820152608401610422565b336001600160a01b03821614806104dc57506104dc8133610288565b61054e5760405162461bcd60e51b815260206004820152603860248201527f4552433732313a20617070726f76652063616c6c6572206973206e6f74206f7760448201527f6e6572206e6f7220617070726f76656420666f7220616c6c00000000000000006064820152608401610422565b610558838361097e565b505050565b61056f3361056a60085490565b6109ec565b61057d600880546001019055565b565b6105893382610a06565b6105a55760405162461bcd60e51b815260040161042290611770565b610558838383610afd565b610558838383604051806020016040528060008152506108a0565b6007546001600160a01b031633146105f55760405162461bcd60e51b81526004016104229061173b565b805161060890600990602084019061131a565b5050565b6000818152600260205260408120546001600160a01b0316806103155760405162461bcd60e51b815260206004820152602960248201527f4552433732313a206f776e657220717565727920666f72206e6f6e657869737460448201526832b73a103a37b5b2b760b91b6064820152608401610422565b6009805461069090611830565b80601f01602080910402602001604051908101604052809291908181526020018280546106bc90611830565b80156107095780601f106106de57610100808354040283529160200191610709565b820191906000526020600020905b8154815290600101906020018083116106ec57829003601f168201915b505050505081565b60006001600160a01b03821661077c5760405162461bcd60e51b815260206004820152602a60248201527f4552433732313a2062616c616e636520717565727920666f7220746865207a65604482015269726f206164647265737360b01b6064820152608401610422565b506001600160a01b031660009081526003602052604090205490565b6007546001600160a01b031633146107c25760405162461bcd60e51b81526004016104229061173b565b61057d6000610c9d565b60606001805461032a90611830565b6001600160a01b0382163314156108345760405162461bcd60e51b815260206004820152601960248201527f4552433732313a20617070726f766520746f2063616c6c6572000000000000006044820152606401610422565b3360008181526005602090815260408083206001600160a01b03871680855290835292819020805460ff191686151590811790915590519081529192917f17307eab39ab6107e8899845ad3d59bd9653f200f220920489ca2b5937696c31910160405180910390a35050565b6108aa3383610a06565b6108c65760405162461bcd60e51b815260040161042290611770565b6108d284848484610cef565b50505050565b606061031582610d22565b6007546001600160a01b0316331461090d5760405162461bcd60e51b81526004016104229061173b565b6001600160a01b0381166109725760405162461bcd60e51b815260206004820152602660248201527f4f776e61626c653a206e6577206f776e657220697320746865207a65726f206160448201526564647265737360d01b6064820152608401610422565b61097b81610c9d565b50565b600081815260046020526040902080546001600160a01b0319166001600160a01b03841690811790915581906109b38261060c565b6001600160a01b03167f8c5be1e5ebec7d5bd14f71427d1e84f3dd0314c0f7b2291e5b200ac8c7c3b92560405160405180910390a45050565b610608828260405180602001604052806000815250610e94565b6000818152600260205260408120546001600160a01b0316610a7f5760405162461bcd60e51b815260206004820152602c60248201527f4552433732313a206f70657261746f7220717565727920666f72206e6f6e657860448201526b34b9ba32b73a103a37b5b2b760a11b6064820152608401610422565b6000610a8a8361060c565b9050806001600160a01b0316846001600160a01b03161480610ac55750836001600160a01b0316610aba846103ad565b6001600160a01b0316145b80610af557506001600160a01b0380821660009081526005602090815260408083209388168352929052205460ff165b949350505050565b826001600160a01b0316610b108261060c565b6001600160a01b031614610b785760405162461bcd60e51b815260206004820152602960248201527f4552433732313a207472616e73666572206f6620746f6b656e2074686174206960448201526839903737ba1037bbb760b91b6064820152608401610422565b6001600160a01b038216610bda5760405162461bcd60e51b8152602060048201526024808201527f4552433732313a207472616e7366657220746f20746865207a65726f206164646044820152637265737360e01b6064820152608401610422565b610be560008261097e565b6001600160a01b0383166000908152600360205260408120805460019290610c0e9084906117ed565b90915550506001600160a01b0382166000908152600360205260408120805460019290610c3c9084906117c1565b909155505060008181526002602052604080822080546001600160a01b0319166001600160a01b0386811691821790925591518493918716917fddf252ad1be2c89b69c2b068fc378daa952ba7f163c4a11628f55a4df523b3ef91a4505050565b600780546001600160a01b038381166001600160a01b0319831681179093556040519116919082907f8be0079c531659141344cd1fd0a4f28419497f9722a3daafe3b4186f6b6457e090600090a35050565b610cfa848484610afd565b610d0684848484610ec7565b6108d25760405162461bcd60e51b8152600401610422906116e9565b6000818152600260205260409020546060906001600160a01b0316610da35760405162461bcd60e51b815260206004820152603160248201527f45524337323155524953746f726167653a2055524920717565727920666f72206044820152703737b732bc34b9ba32b73a103a37b5b2b760791b6064820152608401610422565b60008281526006602052604081208054610dbc90611830565b80601f0160208091040260200160405190810160405280929190818152602001828054610de890611830565b8015610e355780601f10610e0a57610100808354040283529160200191610e35565b820191906000526020600020905b815481529060010190602001808311610e1857829003601f168201915b505050505090506000610e46610fd4565b9050805160001415610e59575092915050565b815115610e8b578082604051602001610e7392919061166a565b60405160208183030381529060405292505050919050565b610af584610fe3565b610e9e83836110be565b610eab6000848484610ec7565b6105585760405162461bcd60e51b8152600401610422906116e9565b60006001600160a01b0384163b15610fc957604051630a85bd0160e11b81526001600160a01b0385169063150b7a0290610f0b903390899088908890600401611699565b602060405180830381600087803b158015610f2557600080fd5b505af1925050508015610f55575060408051601f3d908101601f19168201909252610f52918101906115c4565b60015b610faf573d808015610f83576040519150601f19603f3d011682016040523d82523d6000602084013e610f88565b606091505b508051610fa75760405162461bcd60e51b8152600401610422906116e9565b805181602001fd5b6001600160e01b031916630a85bd0160e11b149050610af5565b506001949350505050565b60606009805461032a90611830565b6000818152600260205260409020546060906001600160a01b03166110625760405162461bcd60e51b815260206004820152602f60248201527f4552433732314d657461646174613a2055524920717565727920666f72206e6f60448201526e3732bc34b9ba32b73a103a37b5b2b760891b6064820152608401610422565b600061106c610fd4565b9050600081511161108c57604051806020016040528060008152506110b7565b8061109684611200565b6040516020016110a792919061166a565b6040516020818303038152906040525b9392505050565b6001600160a01b0382166111145760405162461bcd60e51b815260206004820181905260248201527f4552433732313a206d696e7420746f20746865207a65726f20616464726573736044820152606401610422565b6000818152600260205260409020546001600160a01b0316156111795760405162461bcd60e51b815260206004820152601c60248201527f4552433732313a20746f6b656e20616c7265616479206d696e746564000000006044820152606401610422565b6001600160a01b03821660009081526003602052604081208054600192906111a29084906117c1565b909155505060008181526002602052604080822080546001600160a01b0319166001600160a01b03861690811790915590518392907fddf252ad1be2c89b69c2b068fc378daa952ba7f163c4a11628f55a4df523b3ef908290a45050565b6060816112245750506040805180820190915260018152600360fc1b602082015290565b8160005b811561124e57806112388161186b565b91506112479050600a836117d9565b9150611228565b60008167ffffffffffffffff81111561127757634e487b7160e01b600052604160045260246000fd5b6040519080825280601f01601f1916602001820160405280156112a1576020820181803683370190505b5090505b8415610af5576112b66001836117ed565b91506112c3600a86611886565b6112ce9060306117c1565b60f81b8183815181106112f157634e487b7160e01b600052603260045260246000fd5b60200101906001600160f81b031916908160001a905350611313600a866117d9565b94506112a5565b82805461132690611830565b90600052602060002090601f016020900481019282611348576000855561138e565b82601f1061136157805160ff191683800117855561138e565b8280016001018555821561138e579182015b8281111561138e578251825591602001919060010190611373565b5061139a92915061139e565b5090565b5b8082111561139a576000815560010161139f565b600067ffffffffffffffff808411156113ce576113ce6118c6565b604051601f8501601f19908116603f011681019082821181831017156113f6576113f66118c6565b8160405280935085815286868601111561140f57600080fd5b858560208301376000602087830101525050509392505050565b80356001600160a01b038116811461144057600080fd5b919050565b600060208284031215611456578081fd5b6110b782611429565b60008060408385031215611471578081fd5b61147a83611429565b915061148860208401611429565b90509250929050565b6000806000606084860312156114a5578081fd5b6114ae84611429565b92506114bc60208501611429565b9150604084013590509250925092565b600080600080608085870312156114e1578081fd5b6114ea85611429565b93506114f860208601611429565b925060408501359150606085013567ffffffffffffffff81111561151a578182fd5b8501601f8101871361152a578182fd5b611539878235602084016113b3565b91505092959194509250565b60008060408385031215611557578182fd5b61156083611429565b915060208301358015158114611574578182fd5b809150509250929050565b60008060408385031215611591578182fd5b61159a83611429565b946020939093013593505050565b6000602082840312156115b9578081fd5b81356110b7816118dc565b6000602082840312156115d5578081fd5b81516110b7816118dc565b6000602082840312156115f1578081fd5b813567ffffffffffffffff811115611607578182fd5b8201601f81018413611617578182fd5b610af5848235602084016113b3565b600060208284031215611637578081fd5b5035919050565b60008151808452611656816020860160208601611804565b601f01601f19169290920160200192915050565b6000835161167c818460208801611804565b835190830190611690818360208801611804565b01949350505050565b6001600160a01b03858116825284166020820152604081018390526080606082018190526000906116cc9083018461163e565b9695505050505050565b6020815260006110b7602083018461163e565b60208082526032908201527f4552433732313a207472616e7366657220746f206e6f6e20455243373231526560408201527131b2b4bb32b91034b6b83632b6b2b73a32b960711b606082015260800190565b6020808252818101527f4f776e61626c653a2063616c6c6572206973206e6f7420746865206f776e6572604082015260600190565b60208082526031908201527f4552433732313a207472616e736665722063616c6c6572206973206e6f74206f6040820152701ddb995c881b9bdc88185c1c1c9bdd9959607a1b606082015260800190565b600082198211156117d4576117d461189a565b500190565b6000826117e8576117e86118b0565b500490565b6000828210156117ff576117ff61189a565b500390565b60005b8381101561181f578181015183820152602001611807565b838111156108d25750506000910152565b600181811c9082168061184457607f821691505b6020821081141561186557634e487b7160e01b600052602260045260246000fd5b50919050565b600060001982141561187f5761187f61189a565b5060010190565b600082611895576118956118b0565b500690565b634e487b7160e01b600052601160045260246000fd5b634e487b7160e01b600052601260045260246000fd5b634e487b7160e01b600052604160045260246000fd5b6001600160e01b03198116811461097b57600080fdfea264697066735822122096693be378979b72d2d843b833b5f3181a0e1578572deb8869d239a1693b62ca64736f6c63430008040033",
  "devdoc": {
    "author": ":   @computerdata / @bretth18",
    "details": ":   Token URI's and baseURI can be set via permissioned owner. Ownership is transferrable. This version uses openzeppelin ERC721URIStorage, Ownable and Counters for ease and security purposes.",
    "kind": "dev",
    "methods": {
      "approve(address,uint256)": {
        "details": "See {IERC721-approve}."
      },
      "balanceOf(address)": {
        "details": "See {IERC721-balanceOf}."
      },
      "getApproved(uint256)": {
        "details": "See {IERC721-getApproved}."
      },
      "isApprovedForAll(address,address)": {
        "details": "See {IERC721-isApprovedForAll}."
      },
      "name()": {
        "details": "See {IERC721Metadata-name}."
      },
      "owner()": {
        "details": "Returns the address of the current owner."
      },
      "ownerOf(uint256)": {
        "details": "See {IERC721-ownerOf}."
      },
      "renounceOwnership()": {
        "details": "Leaves the contract without owner. It will not be possible to call `onlyOwner` functions anymore. Can only be called by the current owner. NOTE: Renouncing ownership will leave the contract without an owner, thereby removing any functionality that is only available to the owner."
      },
      "safeTransferFrom(address,address,uint256)": {
        "details": "See {IERC721-safeTransferFrom}."
      },
      "safeTransferFrom(address,address,uint256,bytes)": {
        "details": "See {IERC721-safeTransferFrom}."
      },
      "setApprovalForAll(address,bool)": {
        "details": "See {IERC721-setApprovalForAll}."
      },
      "supportsInterface(bytes4)": {
        "details": "See {IERC165-supportsInterface}."
      },
      "symbol()": {
        "details": "See {IERC721Metadata-symbol}."
      },
      "tokenURI(uint256)": {
        "details": "See {IERC721Metadata-tokenURI}."
      },
      "transferFrom(address,address,uint256)": {
        "details": "See {IERC721-transferFrom}."
      },
      "transferOwnership(address)": {
        "details": "Transfers ownership of the contract to a new account (`newOwner`). Can only be called by the current owner."
      }
    },
    "title": ":   FWBMemberProfile",
    "version": 1
  },
  "userdoc": {
    "kind": "user",
    "methods": {
      "baseURI()": {
        "notice": "String variable to hold our baseURI"
      },
      "constructor": {
        "notice": "Constructor"
      }
    },
    "notice": "------------------------------------------------------------------------------------------------ WWWWWWWWWWWWWWWWWWWWWWWWWWWWWWWWWWWWWWWWWWWWWWWWWWWWWWWWWWWWWWWWWWNx>+|}dWWWWWWWWWWWWWWWWWWWWWWW WWWWWWWWWWWWWWWWWWWWWWWWWWWWWWWWWWWWWWWWWWWWWWWWWWWWWWWWWWWWWWWWWy`      _dWWWWWWWWWWWWWWWWWWWWW WWWWWWWWWWWWWWWWWWWWWWWWWWWWWWWWWWWWWWWWWWWWWWWWWWWWWWWWWWWWWWWWQUr^*JPf, `XWWWWWWWWWWWWWWWWWWWW WWWWWWWWWWWWWWWWWWWWWWWWWWWWWWWWWWWWWWWWWWWWWWWWWWWWWWWWWWWWWWWWWWWWWWW&'  ~QWWWWWWWWWWWWWWWWWWW WWWWWWWWWWWWWWWWWWWWWWWWWWWWQ?'-,*BWWWWWWWWWWWWWWWWWWWWWWWWWWWWWWWWWWWWWv   QWWWWWWWWWWWWWWWWWWW WWWWWWWWWWWWWWWWWWWWWWWWWWWA-     xQWWWWWWWWWWWWWWWWWWWWWWWWWWWWWWWWWWWWP   QWWWWWWWWWWWWWWWWWWW WWWWWWWWWWWWWWWWWWWWWWWWWWQ-     ,#WWWWWWWWWWWWWWWWWWWWWWWWWWWWWWWWWWWWWq  `QWWRkWWWWWWWWWWWWWWW WWWWWWWWWWWWWWWWWWWWWdWWWW>    _jQWWWWWWWWWWWWWWWWWWWWWWWWWWWWWWWWWWWWWWq  ~Qm,  ^QWWWWWWWWWWWWW WWWWWWWWWWWWWWWWWWWQ_ ^QWb  `|WWWWWWWWWWWWWWWWWWWWWWWWWWWWWWWWWWWWWWWWWWm  7=  !RWWWWWWWWWWWWWWW WWWWWWWWWWWWWWWWWWWa  yWQ~ >gWWWWWWWWWWWWWWWWWWWWWWWWWWWWWWWWWWWWWWWWWWWt    ~KWWWWWWWWWWWWWWWWW WWWWWWWWWWWWWWWWWWWJ  !j; }WWWRfQWWWWWWWWWWWWWWWWWWWWWWWWWWWWWWWWWWWWWWQ+   ?QWNQWWWWWWWWWWWWWWW WWWWWWWWWWWWWWWWWWWY    :+QQUi`LQWWWWWWWWWWWWWWWWWWWWWWWWWWWWWWWWWWWWWWQ'   *~` ~QWWWWWWWWWWWWWW WWWWWWWWWWWWWWW&WWWt    `+o=^+kQWWWWWWWWWWWWWWWWWWWWWWWWWWWWWWWWWNf|cGQX      ;mQWWWWWWWWWWWWWWW WWWWWWWWWWWWWWN ;gg:   'X;     ~gWWWWWWWWWWWWWWWWWWWWWWWWWWWWWWQ^     ,U~ -=?RWWWWWWWWWWWWWWWWWW WWWWWWWWWWWWWWQ  `~;-  X~       .RWWWWWWWWWWWWWWWWWWWWWWWWWWWWQ,       _d` ^QWWWWWWWWWWWWWWWWWWW WWWWWWWWWWWWWWW;`Y,'''_X *|Uj`   ~WWWWWWWWWWWWWWWWWWWWWWWWWWWW=    z6iL I^~&WWWWWWWWWWWWWWWWWWWW WWWWWWWWWWWWWWWR- =^~',^uQhQQ;   'QWQDXof{}yk#WWWWQUy}{fyGDQWQ;   'QQGQ}r,'_iQWWWWWWWWWWWWWWWWWW WWWQUt>!~,,',,~!+k,      yyr,    vJ,~;+*;-    JQWI    `;*=;~,zo    '^Jq      ,R*!~,,',,~;>zhQWWW Wm_   `~^7*,     n-    !\\w|     =5    7^'m|   =QQ>   !q'~a    77     ;6c^    -o     ,+z^;`   ,}W W'  '|d; +g~     `z\\~``7QQX=^^>c!    iXiz\\   'NWWN~   =ziZ\\    ~v>+^=yQQy``,|z'     'd= ,di,  `W WQ|`. -|If'k?`    .;7jyyo,z7!,      cU'\\;   ~NWWWWQ+   ~7'Xy`     ,;7j'5j5jz;.     *K'fji- .`+8W WWWQy~  `^i6^Z^        `>.,;      ,o7Xi`  ;AQWWWWWWQq^   >Xcm,      ;~`*-        ~S+Zzr`  ,IQWWW WWWWWWQy^` `^*X6*`               i6v;  ,Ljo>>**?|Li\\cjoL~  ~i6u`               ^6H|^- `;{QWWWWWW WWWWWWw~~*?*^,` ;}|'           ,k?'~>?|!`              `;||*~'^U;           `|fr  ,^*??;;RWWWWWW WWWWQ^    '^s^=*>>7qy^`      'Zk7|!,''                    ``,!?cmS_      `!nK7>>*>!PL     cQWWWW WWWQ;      g'`       '>L;` .\\j,      ,*\\\\iL|?*>=+^^!!;;~~^'      ,It. `;L*,       `g' `    7WWWW WWQ_ `  ^z y{'          '+=|'          7WWWWWWWWWWWWWWWWy`         .|>='          .R`jH` :` SWWW WW^ ^m 'Wmjq;                           ;#WWWWWWWWWWWWQ;                           aGxjS *g_`mWW Wo`yQi`k* zS                             'RWWWWWWWWWWQ~                            `s~`q^'QQ>'QW W{#WW~az  S'                              .RWWWWWWWWg,                              `6 `m!DWWNQW WWWWWaz? ^P                                'gWWWWWWQ,                                J^ ^jzQWWWW WWWWWQWQ!a*                                 +QWWWWWz                                 ;S:QWQWWWWW WWWWWWWWQQ;                                 `QWWWWQ_                                 'QQWWWWWWWW WWWWWWWWWQ+                                 'QWWWWQ;                                 :QWWWWWWWWW WWWWWWWWWWG                                `wWWWWWWd.                                tWWWWWWWWWW WWWWWWWWWWWz                             `>QWWWWWWWWQ\\`                             >QWWWWWWWWWW WWWWWWWWWWWWK>`                        ~xNWWWWWWWWWWWWQI;`                       `^HWWWWWWWWWWWW WWWWWWWWWWWWWWWRoL!_'`          `,;*}DQWWWWWWWWWWWWWWWWWWQDj|;,.          `-,!|jRWWWWWWWWWWWWWWW WWWWWWWWWWWWWWWWWWQWWWWQQQQQQQQWWWQWWWWWWWWWWWWWWWWWWWWWWWWWWQWWWQQQQQQQQWWWWQWWWWWWWWWWWWWWWWWW WWWWWWWWWWWWWWWWWWWQWWWWWWWWWWWWWWWWWWWWWWWWWWWWWWWWWWWWWWWWWWWWWWWWWWWWWWWWQWWWWWWWWWWWWWWWWWWW WWWWWWWWWWWWWWWWWWWWWWWWWWWWWWWWWQWWWWWWWWWWWWWWWWWWWWWWWWWWWWQWWWWWWWWWWWWWWWWWWWWWWWWWWWWWWWWW WWWWWWWWWWWWWWWWWWWWQWWWWWWWWWWWWQQQQQQWWWWWWWWWWWWWWWWWWQQQQQQWWWWWWWWWWWWQWWWWWWWWWWWWWWWWWWWW WWWWWWWWWWWWWWWQQWWWWWWWWWWWWWWWWWWWWWWWWWWWWWWWWWWWWWWWWWWWWWWWWWWWWWWWWWWWWWWQQQWWWWWWWWWWWWWW WWWWWWWWWWWWWWWWWWWWWWWWWWWWWWWWWWWWWWWWWWWWWWWWWWWWWWWWWWWWWWWWWWWWWWWWWWWWWWWWWWWWWWWWWWWWWWWW '||''''|'|| '||'  '|''||''|. '||    ||'               '||                  '||''|.                 .'|.|| '||         ||  .   '|. '|.  .'  ||   || |||  |||  .... .. .. ..  || ...   .... ... .. ||   ||... ..   ...  .||. ...  ||  ....   ||''|    ||  ||  |   ||'''|. |'|..'||.|...|| || || || ||'  ||.|...|| ||' ''||...|' ||' ''.|  '|. ||   ||  ||.|...||  ||        ||| |||    ||    ||| '|' ||||      || || || ||    |||      ||    ||      ||    ||   || ||   ||  ||||       .||.        |   |    .||...|'.|. | .||.'|...'.|| || ||.'|...'  '|...'.||.  .||.    .||.    '|..|'.||. .||..||.'|...'                                                                                                                                                                                                                                                                                                         ---------------------------------------------------------------------------------------------------------------------                                                                                                                                                                                                                                                                                                                            TESTNET V0 \"FWBMemberProfile\"          :   FWBMemberProfile is an ERC-721 Contract that allows Friends With Benefits members to  mint a \"MemberProfile\" NFT. Token URI's point to off-chain metadata containing member profile data. This version is intended only as a test, and does not implement access  controls outside of a single permissioned contract owner.",
    "version": 1
  },
  "storageLayout": {
    "storage": [
      {
        "astId": 1158,
        "contract": "contracts/FWBMemberProfile.sol:FWBMemberProfile",
        "label": "_name",
        "offset": 0,
        "slot": "0",
        "type": "t_string_storage"
      },
      {
        "astId": 1160,
        "contract": "contracts/FWBMemberProfile.sol:FWBMemberProfile",
        "label": "_symbol",
        "offset": 0,
        "slot": "1",
        "type": "t_string_storage"
      },
      {
        "astId": 1164,
        "contract": "contracts/FWBMemberProfile.sol:FWBMemberProfile",
        "label": "_owners",
        "offset": 0,
        "slot": "2",
        "type": "t_mapping(t_uint256,t_address)"
      },
      {
        "astId": 1168,
        "contract": "contracts/FWBMemberProfile.sol:FWBMemberProfile",
        "label": "_balances",
        "offset": 0,
        "slot": "3",
        "type": "t_mapping(t_address,t_uint256)"
      },
      {
        "astId": 1172,
        "contract": "contracts/FWBMemberProfile.sol:FWBMemberProfile",
        "label": "_tokenApprovals",
        "offset": 0,
        "slot": "4",
        "type": "t_mapping(t_uint256,t_address)"
      },
      {
        "astId": 1178,
        "contract": "contracts/FWBMemberProfile.sol:FWBMemberProfile",
        "label": "_operatorApprovals",
        "offset": 0,
        "slot": "5",
        "type": "t_mapping(t_address,t_mapping(t_address,t_bool))"
      },
      {
        "astId": 2433,
        "contract": "contracts/FWBMemberProfile.sol:FWBMemberProfile",
        "label": "_tokenURIs",
        "offset": 0,
        "slot": "6",
        "type": "t_mapping(t_uint256,t_string_storage)"
      },
      {
        "astId": 387,
        "contract": "contracts/FWBMemberProfile.sol:FWBMemberProfile",
        "label": "_owner",
        "offset": 0,
        "slot": "7",
        "type": "t_address"
      },
      {
        "astId": 3283,
        "contract": "contracts/FWBMemberProfile.sol:FWBMemberProfile",
        "label": "_tokenIdCounter",
        "offset": 0,
        "slot": "8",
        "type": "t_struct(Counter)2958_storage"
      },
      {
        "astId": 3286,
        "contract": "contracts/FWBMemberProfile.sol:FWBMemberProfile",
        "label": "baseURI",
        "offset": 0,
        "slot": "9",
        "type": "t_string_storage"
      }
    ],
    "types": {
      "t_address": {
        "encoding": "inplace",
        "label": "address",
        "numberOfBytes": "20"
      },
      "t_bool": {
        "encoding": "inplace",
        "label": "bool",
        "numberOfBytes": "1"
      },
      "t_mapping(t_address,t_bool)": {
        "encoding": "mapping",
        "key": "t_address",
        "label": "mapping(address => bool)",
        "numberOfBytes": "32",
        "value": "t_bool"
      },
      "t_mapping(t_address,t_mapping(t_address,t_bool))": {
        "encoding": "mapping",
        "key": "t_address",
        "label": "mapping(address => mapping(address => bool))",
        "numberOfBytes": "32",
        "value": "t_mapping(t_address,t_bool)"
      },
      "t_mapping(t_address,t_uint256)": {
        "encoding": "mapping",
        "key": "t_address",
        "label": "mapping(address => uint256)",
        "numberOfBytes": "32",
        "value": "t_uint256"
      },
      "t_mapping(t_uint256,t_address)": {
        "encoding": "mapping",
        "key": "t_uint256",
        "label": "mapping(uint256 => address)",
        "numberOfBytes": "32",
        "value": "t_address"
      },
      "t_mapping(t_uint256,t_string_storage)": {
        "encoding": "mapping",
        "key": "t_uint256",
        "label": "mapping(uint256 => string)",
        "numberOfBytes": "32",
        "value": "t_string_storage"
      },
      "t_string_storage": {
        "encoding": "bytes",
        "label": "string",
        "numberOfBytes": "32"
      },
      "t_struct(Counter)2958_storage": {
        "encoding": "inplace",
        "label": "struct Counters.Counter",
        "members": [
          {
            "astId": 2957,
            "contract": "contracts/FWBMemberProfile.sol:FWBMemberProfile",
            "label": "_value",
            "offset": 0,
            "slot": "0",
            "type": "t_uint256"
          }
        ],
        "numberOfBytes": "32"
      },
      "t_uint256": {
        "encoding": "inplace",
        "label": "uint256",
        "numberOfBytes": "32"
      }
    }
  }
}