{
  "address": "0x3eEC387926583887961Cdc3eb1F8D9A58f6e76B4",
  "abi": [
    {
      "anonymous": false,
      "inputs": [
        {
          "indexed": false,
          "internalType": "address",
          "name": "previousAdmin",
          "type": "address"
        },
        {
          "indexed": false,
          "internalType": "address",
          "name": "newAdmin",
          "type": "address"
        }
      ],
      "name": "AdminChanged",
      "type": "event"
    },
    {
      "anonymous": false,
      "inputs": [
        {
          "indexed": true,
          "internalType": "address",
          "name": "owner",
          "type": "address"
        },
        {
          "indexed": true,
          "internalType": "address",
          "name": "approved",
          "type": "address"
        },
        {
          "indexed": true,
          "internalType": "uint256",
          "name": "tokenId",
          "type": "uint256"
        }
      ],
      "name": "Approval",
      "type": "event"
    },
    {
      "anonymous": false,
      "inputs": [
        {
          "indexed": true,
          "internalType": "address",
          "name": "owner",
          "type": "address"
        },
        {
          "indexed": true,
          "internalType": "address",
          "name": "operator",
          "type": "address"
        },
        {
          "indexed": false,
          "internalType": "bool",
          "name": "approved",
          "type": "bool"
        }
      ],
      "name": "ApprovalForAll",
      "type": "event"
    },
    {
      "anonymous": false,
      "inputs": [
        {
          "indexed": true,
          "internalType": "address",
          "name": "beacon",
          "type": "address"
        }
      ],
      "name": "BeaconUpgraded",
      "type": "event"
    },
    {
      "anonymous": false,
      "inputs": [
        {
          "indexed": true,
          "internalType": "address",
          "name": "previousOwner",
          "type": "address"
        },
        {
          "indexed": true,
          "internalType": "address",
          "name": "newOwner",
          "type": "address"
        }
      ],
      "name": "OwnershipTransferred",
      "type": "event"
    },
    {
      "anonymous": false,
      "inputs": [
        {
          "indexed": true,
          "internalType": "bytes32",
          "name": "role",
          "type": "bytes32"
        },
        {
          "indexed": true,
          "internalType": "bytes32",
          "name": "previousAdminRole",
          "type": "bytes32"
        },
        {
          "indexed": true,
          "internalType": "bytes32",
          "name": "newAdminRole",
          "type": "bytes32"
        }
      ],
      "name": "RoleAdminChanged",
      "type": "event"
    },
    {
      "anonymous": false,
      "inputs": [
        {
          "indexed": true,
          "internalType": "bytes32",
          "name": "role",
          "type": "bytes32"
        },
        {
          "indexed": true,
          "internalType": "address",
          "name": "account",
          "type": "address"
        },
        {
          "indexed": true,
          "internalType": "address",
          "name": "sender",
          "type": "address"
        }
      ],
      "name": "RoleGranted",
      "type": "event"
    },
    {
      "anonymous": false,
      "inputs": [
        {
          "indexed": true,
          "internalType": "bytes32",
          "name": "role",
          "type": "bytes32"
        },
        {
          "indexed": true,
          "internalType": "address",
          "name": "account",
          "type": "address"
        },
        {
          "indexed": true,
          "internalType": "address",
          "name": "sender",
          "type": "address"
        }
      ],
      "name": "RoleRevoked",
      "type": "event"
    },
    {
      "anonymous": false,
      "inputs": [
        {
          "indexed": true,
          "internalType": "address",
          "name": "from",
          "type": "address"
        },
        {
          "indexed": true,
          "internalType": "address",
          "name": "to",
          "type": "address"
        },
        {
          "indexed": true,
          "internalType": "uint256",
          "name": "tokenId",
          "type": "uint256"
        }
      ],
      "name": "Transfer",
      "type": "event"
    },
    {
      "anonymous": false,
      "inputs": [
        {
          "indexed": true,
          "internalType": "address",
          "name": "implementation",
          "type": "address"
        }
      ],
      "name": "Upgraded",
      "type": "event"
    },
    {
      "inputs": [],
      "name": "DEFAULT_ADMIN_ROLE",
      "outputs": [
        {
          "internalType": "bytes32",
          "name": "",
          "type": "bytes32"
        }
      ],
      "stateMutability": "view",
      "type": "function"
    },
    {
      "inputs": [],
      "name": "NFT_MANAGER_ROLE",
      "outputs": [
        {
          "internalType": "bytes32",
          "name": "",
          "type": "bytes32"
        }
      ],
      "stateMutability": "view",
      "type": "function"
    },
    {
      "inputs": [],
      "name": "SIGNER_ROLE",
      "outputs": [
        {
          "internalType": "bytes32",
          "name": "",
          "type": "bytes32"
        }
      ],
      "stateMutability": "view",
      "type": "function"
    },
    {
      "inputs": [
        {
          "internalType": "address",
          "name": "",
          "type": "address"
        }
      ],
      "name": "addressToId",
      "outputs": [
        {
          "internalType": "uint256",
          "name": "",
          "type": "uint256"
        }
      ],
      "stateMutability": "view",
      "type": "function"
    },
    {
      "inputs": [
        {
          "internalType": "address",
          "name": "to",
          "type": "address"
        },
        {
          "internalType": "uint256",
          "name": "id",
          "type": "uint256"
        }
      ],
      "name": "adminMint",
      "outputs": [],
      "stateMutability": "nonpayable",
      "type": "function"
    },
    {
      "inputs": [
        {
          "internalType": "uint256[]",
          "name": "ids",
          "type": "uint256[]"
        }
      ],
      "name": "adminRevokeMemberships",
      "outputs": [],
      "stateMutability": "nonpayable",
      "type": "function"
    },
    {
      "inputs": [
        {
          "internalType": "address",
          "name": "",
          "type": "address"
        },
        {
          "internalType": "uint256",
          "name": "",
          "type": "uint256"
        }
      ],
      "name": "approve",
      "outputs": [],
      "stateMutability": "nonpayable",
      "type": "function"
    },
    {
      "inputs": [
        {
          "internalType": "address",
          "name": "user",
          "type": "address"
        }
      ],
      "name": "balanceOf",
      "outputs": [
        {
          "internalType": "uint256",
          "name": "",
          "type": "uint256"
        }
      ],
      "stateMutability": "view",
      "type": "function"
    },
    {
      "inputs": [
        {
          "internalType": "uint256",
          "name": "id",
          "type": "uint256"
        }
      ],
      "name": "burn",
      "outputs": [],
      "stateMutability": "nonpayable",
      "type": "function"
    },
    {
      "inputs": [
        {
          "internalType": "uint256",
          "name": "",
          "type": "uint256"
        }
      ],
      "name": "getApproved",
      "outputs": [
        {
          "internalType": "address",
          "name": "",
          "type": "address"
        }
      ],
      "stateMutability": "view",
      "type": "function"
    },
    {
      "inputs": [
        {
          "internalType": "bytes32",
          "name": "role",
          "type": "bytes32"
        }
      ],
      "name": "getRoleAdmin",
      "outputs": [
        {
          "internalType": "bytes32",
          "name": "",
          "type": "bytes32"
        }
      ],
      "stateMutability": "view",
      "type": "function"
    },
    {
      "inputs": [
        {
          "internalType": "bytes32",
          "name": "role",
          "type": "bytes32"
        },
        {
          "internalType": "address",
          "name": "account",
          "type": "address"
        }
      ],
      "name": "grantRole",
      "outputs": [],
      "stateMutability": "nonpayable",
      "type": "function"
    },
    {
      "inputs": [
        {
          "internalType": "bytes32",
          "name": "role",
          "type": "bytes32"
        },
        {
          "internalType": "address",
          "name": "account",
          "type": "address"
        }
      ],
      "name": "hasRole",
      "outputs": [
        {
          "internalType": "bool",
          "name": "",
          "type": "bool"
        }
      ],
      "stateMutability": "view",
      "type": "function"
    },
    {
      "inputs": [
        {
          "internalType": "string",
          "name": "_urlBase",
          "type": "string"
        },
        {
          "internalType": "address",
          "name": "admin",
          "type": "address"
        }
      ],
      "name": "initialize",
      "outputs": [],
      "stateMutability": "nonpayable",
      "type": "function"
    },
    {
      "inputs": [
        {
          "internalType": "address",
          "name": "",
          "type": "address"
        },
        {
          "internalType": "address",
          "name": "",
          "type": "address"
        }
      ],
      "name": "isApprovedForAll",
      "outputs": [
        {
          "internalType": "bool",
          "name": "",
          "type": "bool"
        }
      ],
      "stateMutability": "view",
      "type": "function"
    },
    {
      "inputs": [
        {
          "internalType": "address",
          "name": "signer",
          "type": "address"
        },
        {
          "internalType": "address",
          "name": "to",
          "type": "address"
        },
        {
          "internalType": "uint256",
          "name": "tokenId",
          "type": "uint256"
        },
        {
          "internalType": "uint256",
          "name": "deadline",
          "type": "uint256"
        },
        {
          "internalType": "uint256",
          "name": "nonce",
          "type": "uint256"
        },
        {
          "internalType": "bytes",
          "name": "signature",
          "type": "bytes"
        }
      ],
      "name": "mintWithSign",
      "outputs": [],
      "stateMutability": "nonpayable",
      "type": "function"
    },
    {
      "inputs": [],
      "name": "name",
      "outputs": [
        {
          "internalType": "string",
          "name": "",
          "type": "string"
        }
      ],
      "stateMutability": "view",
      "type": "function"
    },
    {
      "inputs": [],
      "name": "owner",
      "outputs": [
        {
          "internalType": "address",
          "name": "",
          "type": "address"
        }
      ],
      "stateMutability": "view",
      "type": "function"
    },
    {
      "inputs": [
        {
          "internalType": "uint256",
          "name": "id",
          "type": "uint256"
        }
      ],
      "name": "ownerOf",
      "outputs": [
        {
          "internalType": "address",
          "name": "",
          "type": "address"
        }
      ],
      "stateMutability": "view",
      "type": "function"
    },
    {
      "inputs": [],
      "name": "renounceOwnership",
      "outputs": [],
      "stateMutability": "nonpayable",
      "type": "function"
    },
    {
      "inputs": [
        {
          "internalType": "bytes32",
          "name": "role",
          "type": "bytes32"
        },
        {
          "internalType": "address",
          "name": "account",
          "type": "address"
        }
      ],
      "name": "renounceRole",
      "outputs": [],
      "stateMutability": "nonpayable",
      "type": "function"
    },
    {
      "inputs": [
        {
          "internalType": "bytes32",
          "name": "role",
          "type": "bytes32"
        },
        {
          "internalType": "address",
          "name": "account",
          "type": "address"
        }
      ],
      "name": "revokeRole",
      "outputs": [],
      "stateMutability": "nonpayable",
      "type": "function"
    },
    {
      "inputs": [
        {
          "internalType": "address",
          "name": "",
          "type": "address"
        },
        {
          "internalType": "address",
          "name": "",
          "type": "address"
        },
        {
          "internalType": "uint256",
          "name": "",
          "type": "uint256"
        }
      ],
      "name": "safeTransferFrom",
      "outputs": [],
      "stateMutability": "nonpayable",
      "type": "function"
    },
    {
      "inputs": [
        {
          "internalType": "address",
          "name": "",
          "type": "address"
        },
        {
          "internalType": "address",
          "name": "",
          "type": "address"
        },
        {
          "internalType": "uint256",
          "name": "",
          "type": "uint256"
        },
        {
          "internalType": "bytes",
          "name": "",
          "type": "bytes"
        }
      ],
      "name": "safeTransferFrom",
      "outputs": [],
      "stateMutability": "nonpayable",
      "type": "function"
    },
    {
      "inputs": [
        {
          "internalType": "address",
          "name": "",
          "type": "address"
        },
        {
          "internalType": "bool",
          "name": "",
          "type": "bool"
        }
      ],
      "name": "setApprovalForAll",
      "outputs": [],
      "stateMutability": "nonpayable",
      "type": "function"
    },
    {
      "inputs": [
        {
          "internalType": "bytes4",
          "name": "interfaceId",
          "type": "bytes4"
        }
      ],
      "name": "supportsInterface",
      "outputs": [
        {
          "internalType": "bool",
          "name": "",
          "type": "bool"
        }
      ],
      "stateMutability": "view",
      "type": "function"
    },
    {
      "inputs": [],
      "name": "symbol",
      "outputs": [
        {
          "internalType": "string",
          "name": "",
          "type": "string"
        }
      ],
      "stateMutability": "view",
      "type": "function"
    },
    {
      "inputs": [
        {
          "internalType": "uint256",
          "name": "id",
          "type": "uint256"
        }
      ],
      "name": "tokenURI",
      "outputs": [
        {
          "internalType": "string",
          "name": "",
          "type": "string"
        }
      ],
      "stateMutability": "view",
      "type": "function"
    },
    {
      "inputs": [],
      "name": "totalSupply",
      "outputs": [
        {
          "internalType": "uint256",
          "name": "",
          "type": "uint256"
        }
      ],
      "stateMutability": "view",
      "type": "function"
    },
    {
      "inputs": [
        {
          "internalType": "address",
          "name": "from",
          "type": "address"
        },
        {
          "internalType": "address",
          "name": "to",
          "type": "address"
        },
        {
          "internalType": "uint256",
          "name": "checkTokenId",
          "type": "uint256"
        }
      ],
      "name": "transferFrom",
      "outputs": [],
      "stateMutability": "nonpayable",
      "type": "function"
    },
    {
      "inputs": [
        {
          "internalType": "address",
          "name": "newOwner",
          "type": "address"
        }
      ],
      "name": "transferOwnership",
      "outputs": [],
      "stateMutability": "nonpayable",
      "type": "function"
    },
    {
      "inputs": [
        {
          "internalType": "address",
          "name": "signer",
          "type": "address"
        },
        {
          "internalType": "address",
          "name": "from",
          "type": "address"
        },
        {
          "internalType": "address",
          "name": "to",
          "type": "address"
        },
        {
          "internalType": "uint256",
          "name": "tokenId",
          "type": "uint256"
        },
        {
          "internalType": "uint256",
          "name": "deadline",
          "type": "uint256"
        },
        {
          "internalType": "uint256",
          "name": "nonce",
          "type": "uint256"
        },
        {
          "internalType": "bytes",
          "name": "signature",
          "type": "bytes"
        }
      ],
      "name": "transferWithSign",
      "outputs": [],
      "stateMutability": "nonpayable",
      "type": "function"
    },
    {
      "inputs": [
        {
          "internalType": "string",
          "name": "newUrlBase",
          "type": "string"
        }
      ],
      "name": "updateUrlBase",
      "outputs": [],
      "stateMutability": "nonpayable",
      "type": "function"
    },
    {
      "inputs": [
        {
          "internalType": "address",
          "name": "newImplementation",
          "type": "address"
        }
      ],
      "name": "upgradeTo",
      "outputs": [],
      "stateMutability": "nonpayable",
      "type": "function"
    },
    {
      "inputs": [
        {
          "internalType": "address",
          "name": "newImplementation",
          "type": "address"
        },
        {
          "internalType": "bytes",
          "name": "data",
          "type": "bytes"
        }
      ],
      "name": "upgradeToAndCall",
      "outputs": [],
      "stateMutability": "payable",
      "type": "function"
    },
    {
      "inputs": [],
      "name": "urlBase",
      "outputs": [
        {
          "internalType": "string",
          "name": "",
          "type": "string"
        }
      ],
      "stateMutability": "view",
      "type": "function"
    },
    {
      "inputs": [
        {
          "internalType": "uint256",
          "name": "",
          "type": "uint256"
        }
      ],
      "name": "usedNonces",
      "outputs": [
        {
          "internalType": "bool",
          "name": "",
          "type": "bool"
        }
      ],
      "stateMutability": "view",
      "type": "function"
    }
  ],
  "transactionHash": "0xdb30c1824659d98e868e92127ea8f87840f2a6ae3b5e1dc1384f660dc0314ca6",
  "args": [],
  "solcInputHash": "b61eb1bc0da2ee29f8ddcd65300fb476",
  "bytecode": "0x60e0604052306080527f4f5a9b43abfba6b0e28ba2a808658efaea7d2d39624404c8ff1a1bea3d8896ee60a0527f286cb9798e917cf052044cb97622281e6fda7164f5a4ef21acf9ba0aa9b15bf560c05234801561005c57600080fd5b5060805160a05160c051612ddc6100a16000396000610e2401526000610a3a015260008181610bba01528181610bfa01528181610f180152610f580152612ddc6000f3fe60806040526004361061021a5760003560e01c80636717e41c11610123578063a217fddf116100ab578063d547741f1161006f578063d547741f1461069f578063e58306f9146106bf578063e78191ad146106df578063e985e9c5146106f4578063f2fde38b1461071757600080fd5b8063a217fddf14610607578063a22cb4651461061c578063b88d4fde14610637578063c87b56dd14610652578063cb0e0d7d1461067257600080fd5b80638ad44fd5116100f25780638ad44fd5146105415780638da5cb5b1461056357806391d148541461058157806395d89b41146105a1578063a1ebf35d146105d357600080fd5b80636717e41c146104bb57806370a08231146104ec578063715018a61461050c5780637ab4339d1461052157600080fd5b80632f2ff15d116101a657806342842e0e1161017557806342842e0e1461042d57806342966c681461044857806346090571146104685780634f1ef286146104885780636352211e1461049b57600080fd5b80632f2ff15d146103ad578063342623f1146103cd57806336568abe146103ed5780633659cfe61461040d57600080fd5b8063095ea7b3116101ed578063095ea7b3146102fa57806318160ddd1461031a5780631e79ad421461033d57806323b872dd1461035d578063248a9ca31461037d57600080fd5b806301ffc9a71461021f57806302d9e6961461025457806306fdde0314610276578063081812fc146102c1575b600080fd5b34801561022b57600080fd5b5061023f61023a366004612459565b610737565b60405190151581526020015b60405180910390f35b34801561026057600080fd5b5061027461026f36600461252d565b610757565b005b34801561028257600080fd5b506102b4604051806040016040528060128152602001711195d08813595b58995c9cda1a5c0813919560721b81525081565b60405161024b91906125be565b3480156102cd57600080fd5b506102e26102dc3660046125d1565b50600090565b6040516001600160a01b03909116815260200161024b565b34801561030657600080fd5b50610274610315366004612606565b610789565b34801561032657600080fd5b5061032f6107e5565b60405190815260200161024b565b34801561034957600080fd5b50610274610358366004612630565b6107f5565b34801561036957600080fd5b506102746103783660046126d6565b61084e565b34801561038957600080fd5b5061032f6103983660046125d1565b600090815260ce602052604090206001015490565b3480156103b957600080fd5b506102746103c8366004612712565b6108da565b3480156103d957600080fd5b506102746103e836600461273e565b610900565b3480156103f957600080fd5b50610274610408366004612712565b610b31565b34801561041957600080fd5b506102746104283660046127b8565b610baf565b34801561043957600080fd5b506102746103153660046126d6565b34801561045457600080fd5b506102746104633660046125d1565b610c78565b34801561047457600080fd5b506102746104833660046127d3565b610cea565b61027461049636600461285f565b610f0d565b3480156104a757600080fd5b506102e26104b63660046125d1565b610fc3565b3480156104c757600080fd5b5061023f6104d63660046125d1565b6101656020526000908152604090205460ff1681565b3480156104f857600080fd5b5061032f6105073660046127b8565b611043565b34801561051857600080fd5b50610274611074565b34801561052d57600080fd5b5061027461053c3660046128ad565b6110da565b34801561054d57600080fd5b5061032f600080516020612d6083398151915281565b34801561056f57600080fd5b506033546001600160a01b03166102e2565b34801561058d57600080fd5b5061023f61059c366004612712565b611217565b3480156105ad57600080fd5b506102b4604051806040016040528060068152602001654657424d454d60d01b81525081565b3480156105df57600080fd5b5061032f7fe2f4eaae4a9751e85a3e4a7b9587827a877f29914755229b07a7b2da98285f7081565b34801561061357600080fd5b5061032f600081565b34801561062857600080fd5b506102746103153660046128f2565b34801561064357600080fd5b5061027461031536600461292e565b34801561065e57600080fd5b506102b461066d3660046125d1565b611242565b34801561067e57600080fd5b5061032f61068d3660046127b8565b60986020526000908152604090205481565b3480156106ab57600080fd5b506102746106ba366004612712565b6112dc565b3480156106cb57600080fd5b506102746106da366004612606565b611302565b3480156106eb57600080fd5b506102b4611325565b34801561070057600080fd5b5061023f61070f366004612996565b600092915050565b34801561072357600080fd5b506102746107323660046127b8565b6113b4565b60006107428261147c565b806107515750610751826114cd565b92915050565b600080516020612d6083398151915261077081336114f2565b8151610784906101649060208501906123aa565b505050565b60405162461bcd60e51b815260206004820152602660248201527f466e206e6f7420737570706f727465643a206e6f6e7472616e736665727261626044820152651b194813919560d21b60648201526084015b60405180910390fd5b60006107f060975490565b905090565b600080516020612d6083398151915261080e81336114f2565b60005b82518110156107845761083c83828151811061082f5761082f6129c0565b6020026020010151611556565b80610846816129ec565b915050610811565b600080516020612d6083398151915261086781336114f2565b6001600160a01b0384166000908152609860205260409020548281146108c85760405162461bcd60e51b815260206004820152601660248201527508aa4a47440a8ded6cadc40928840dad2e6dac2e8c6d60531b60448201526064016107dc565b6108d38585836115d2565b5050505050565b600082815260ce60205260409020600101546108f681336114f2565b6107848383611648565b8183804211156109495760405162461bcd60e51b8152602060048201526014602482015273111958591b1a5b99481d1a5b59481c185cdcd95960621b60448201526064016107dc565b6000828152610165602052604090205460ff16156109965760405162461bcd60e51b815260206004820152600a6024820152691b9bdb98d9481d5cd95960b21b60448201526064016107dc565b600082815261016560205260409020805460ff191660011790557fe2f4eaae4a9751e85a3e4a7b9587827a877f29914755229b07a7b2da98285f70886109dc82826114f2565b6001600160a01b0389163314610a345760405162461bcd60e51b815260206004820152601c60248201527f4e6565647320746f20626520726563656976696e672077616c6c65740000000060448201526064016107dc565b604080517f000000000000000000000000000000000000000000000000000000000000000060208201526001600160a01b03808d1692820192909252908a1660608201526080810189905260a0810188905260c08101879052610abc908b90610ab69060e0015b604051602081830303815290604052805190602001206116ce565b8761171c565b610b1b5760405162461bcd60e51b815260206004820152602a60248201527f4e46545065726d69743a3a6d696e74576974685369676e3a20496e76616c6964604482015269207369676e617475726560b01b60648201526084016107dc565b610b25898961186a565b50505050505050505050565b6001600160a01b0381163314610ba15760405162461bcd60e51b815260206004820152602f60248201527f416363657373436f6e74726f6c3a2063616e206f6e6c792072656e6f756e636560448201526e103937b632b9903337b91039b2b63360891b60648201526084016107dc565b610bab8282611944565b5050565b306001600160a01b037f0000000000000000000000000000000000000000000000000000000000000000161415610bf85760405162461bcd60e51b81526004016107dc90612a07565b7f00000000000000000000000000000000000000000000000000000000000000006001600160a01b0316610c2a6119ab565b6001600160a01b031614610c505760405162461bcd60e51b81526004016107dc90612a53565b610c59816119d9565b60408051600080825260208201909252610c75918391906119e5565b50565b610c8181610fc3565b6001600160a01b0316336001600160a01b031614610ce15760405162461bcd60e51b815260206004820152601b60248201527f4e4654204275726e3a206e6565647320746f206265206f776e6572000000000060448201526064016107dc565b610c7581611556565b818380421115610d335760405162461bcd60e51b8152602060048201526014602482015273111958591b1a5b99481d1a5b59481c185cdcd95960621b60448201526064016107dc565b6000828152610165602052604090205460ff1615610d805760405162461bcd60e51b815260206004820152600a6024820152691b9bdb98d9481d5cd95960b21b60448201526064016107dc565b600082815261016560205260409020805460ff191660011790557fe2f4eaae4a9751e85a3e4a7b9587827a877f29914755229b07a7b2da98285f7089610dc682826114f2565b6001600160a01b0389163314610e1e5760405162461bcd60e51b815260206004820152601c60248201527f4e6565647320746f20626520726563656976696e672077616c6c65740000000060448201526064016107dc565b604080517f000000000000000000000000000000000000000000000000000000000000000060208201526001600160a01b03808e1692820192909252818c166060820152908a16608082015260a0810189905260c0810188905260e08101879052610e92908c90610ab69061010001610a9b565b610ef55760405162461bcd60e51b815260206004820152602e60248201527f4e46545065726d69743a3a7472616e73666572576974685369676e3a20496e7660448201526d616c6964207369676e617475726560901b60648201526084016107dc565b610f008a8a8a6115d2565b5050505050505050505050565b306001600160a01b037f0000000000000000000000000000000000000000000000000000000000000000161415610f565760405162461bcd60e51b81526004016107dc90612a07565b7f00000000000000000000000000000000000000000000000000000000000000006001600160a01b0316610f886119ab565b6001600160a01b031614610fae5760405162461bcd60e51b81526004016107dc90612a53565b610fb7826119d9565b610bab828260016119e5565b6000818152609960205260408120546001600160a01b03166110275760405162461bcd60e51b815260206004820152601c60248201527f4552433732313a20546f6b656e20646f6573206e6f742065786973740000000060448201526064016107dc565b506000908152609960205260409020546001600160a01b031690565b6001600160a01b0381166000908152609860205260408120541561106857600161106b565b60005b60ff1692915050565b6033546001600160a01b031633146110ce5760405162461bcd60e51b815260206004820181905260248201527f4f776e61626c653a2063616c6c6572206973206e6f7420746865206f776e657260448201526064016107dc565b6110d86000611b29565b565b600054610100900460ff166110f55760005460ff16156110f9565b303b155b61115c5760405162461bcd60e51b815260206004820152602e60248201527f496e697469616c697a61626c653a20636f6e747261637420697320616c72656160448201526d191e481a5b9a5d1a585b1a5e995960921b60648201526084016107dc565b600054610100900460ff1615801561117e576000805461ffff19166101011790555b6111c96040518060400160405280601081526020016f1195d093595b58995c9cda1a5c13919560821b815250604051806040016040528060018152602001603160f81b815250611b7b565b6111d1611bac565b6111d9611be3565b6111e1611c0a565b6111ec600083611648565b8251611200906101649060208601906123aa565b508015610784576000805461ff0019169055505050565b600091825260ce602090815260408084206001600160a01b0393909316845291905290205460ff1690565b6000818152609960205260409020546060906001600160a01b03166112a95760405162461bcd60e51b815260206004820152601c60248201527f4552433732313a20546f6b656e20646f6573206e6f742065786973740000000060448201526064016107dc565b6101646112b583611c39565b6040516020016112c6929190612af6565b6040516020818303038152906040529050919050565b600082815260ce60205260409020600101546112f881336114f2565b6107848383611944565b600080516020612d6083398151915261131b81336114f2565b610784838361186a565b610164805461133390612a9f565b80601f016020809104026020016040519081016040528092919081815260200182805461135f90612a9f565b80156113ac5780601f10611381576101008083540402835291602001916113ac565b820191906000526020600020905b81548152906001019060200180831161138f57829003601f168201915b505050505081565b6033546001600160a01b0316331461140e5760405162461bcd60e51b815260206004820181905260248201527f4f776e61626c653a2063616c6c6572206973206e6f7420746865206f776e657260448201526064016107dc565b6001600160a01b0381166114735760405162461bcd60e51b815260206004820152602660248201527f4f776e61626c653a206e6577206f776e657220697320746865207a65726f206160448201526564647265737360d01b60648201526084016107dc565b610c7581611b29565b60006301ffc9a760e01b6001600160e01b0319831614806114ad57506001600160e01b031982166380ac58cd60e01b145b8061075157506001600160e01b03198216635b5e139f60e01b1492915050565b60006001600160e01b03198216637965db0b60e01b148061075157506107518261147c565b6114fc8282611217565b610bab57611514816001600160a01b03166014611d3f565b61151f836020611d3f565b604051602001611530929190612b94565b60408051601f198184030181529082905262461bcd60e51b82526107dc916004016125be565b600061156182610fc3565b905061156d6097611edb565b600082815260996020908152604080832080546001600160a01b03191690556001600160a01b038416808452609890925280832083905551849291907fddf252ad1be2c89b69c2b068fc378daa952ba7f163c4a11628f55a4df523b3ef908390a45050565b6001600160a01b0383811660008181526098602081815260408084208490558684526099825280842080546001600160a01b031916968916968717905585845291905280822085905551849392917fddf252ad1be2c89b69c2b068fc378daa952ba7f163c4a11628f55a4df523b3ef91a4505050565b6116528282611217565b610bab57600082815260ce602090815260408083206001600160a01b03851684529091529020805460ff1916600117905561168a3390565b6001600160a01b0316816001600160a01b0316837f2f8788117e7eff1d82e926ec794901d17c78024a50270940304540a733656f0d60405160405180910390a45050565b60006107516116db611f32565b8360405161190160f01b6020820152602281018390526042810182905260009060620160405160208183030381529060405280519060200120905092915050565b600080600061172b8585611fad565b9092509050600081600481111561174457611744612c09565b1480156117625750856001600160a01b0316826001600160a01b0316145b1561177257600192505050611863565b600080876001600160a01b0316631626ba7e60e01b888860405160240161179a929190612c1f565b60408051601f198184030181529181526020820180516001600160e01b03166001600160e01b03199094169390931790925290516117d89190612c38565b600060405180830381855afa9150503d8060008114611813576040519150601f19603f3d011682016040523d82523d6000602084013e611818565b606091505b509150915081801561182b575080516020145b801561185c57508051630b135d3f60e11b906118509083016020908101908401612c54565b6001600160e01b031916145b9450505050505b9392505050565b6000818152609960205260409020546001600160a01b0316156118c75760405162461bcd60e51b8152602060048201526015602482015274135a5b9d0e88185b1c9958591e4818db185a5b5959605a1b60448201526064016107dc565b6001600160a01b038216158015906118de57508015155b61192a5760405162461bcd60e51b815260206004820152601f60248201527f4d696e743a2063616e6e6f74206d696e74206e756c6c206964206f7220746f0060448201526064016107dc565b611938609780546001019055565b610bab600083836115d2565b61194e8282611217565b15610bab57600082815260ce602090815260408083206001600160a01b0385168085529252808320805460ff1916905551339285917ff6391f5c32d9c69d2a47ea670b442974b53935d1edc7fd64eb21e047a839171b9190a45050565b7f360894a13ba1a3210667c828492db98dca3e2076cc3735a920a3ca505d382bbc546001600160a01b031690565b6000610bab81336114f2565b60006119ef6119ab565b90506119fa8461201d565b600083511180611a075750815b15611a1857611a1684846120c2565b505b7f4910fdfa16fed3260ed0e7147f7cc6da11a60208b5b9406d12a635614ffd9143805460ff166108d357805460ff191660011781556040516001600160a01b0383166024820152611a9790869060440160408051601f198184030181529190526020810180516001600160e01b0316631b2ce7f360e11b1790526120c2565b50805460ff19168155611aa86119ab565b6001600160a01b0316826001600160a01b031614611b205760405162461bcd60e51b815260206004820152602f60248201527f45524331393637557067726164653a207570677261646520627265616b73206660448201526e75727468657220757067726164657360881b60648201526084016107dc565b6108d3856121ad565b603380546001600160a01b038381166001600160a01b0319831681179093556040519116919082907f8be0079c531659141344cd1fd0a4f28419497f9722a3daafe3b4186f6b6457e090600090a35050565b600054610100900460ff16611ba25760405162461bcd60e51b81526004016107dc90612c71565b610bab82826121ed565b600054610100900460ff16611bd35760405162461bcd60e51b81526004016107dc90612c71565b611bdb61222e565b6110d861222e565b600054610100900460ff16611bdb5760405162461bcd60e51b81526004016107dc90612c71565b600054610100900460ff16611c315760405162461bcd60e51b81526004016107dc90612c71565b611bd361222e565b606081611c5d5750506040805180820190915260018152600360fc1b602082015290565b8160005b8115611c875780611c71816129ec565b9150611c809050600a83612cd2565b9150611c61565b60008167ffffffffffffffff811115611ca257611ca2612476565b6040519080825280601f01601f191660200182016040528015611ccc576020820181803683370190505b5090505b8415611d3757611ce1600183612ce6565b9150611cee600a86612cfd565b611cf9906030612d11565b60f81b818381518110611d0e57611d0e6129c0565b60200101906001600160f81b031916908160001a905350611d30600a86612cd2565b9450611cd0565b949350505050565b60606000611d4e836002612d29565b611d59906002612d11565b67ffffffffffffffff811115611d7157611d71612476565b6040519080825280601f01601f191660200182016040528015611d9b576020820181803683370190505b509050600360fc1b81600081518110611db657611db66129c0565b60200101906001600160f81b031916908160001a905350600f60fb1b81600181518110611de557611de56129c0565b60200101906001600160f81b031916908160001a9053506000611e09846002612d29565b611e14906001612d11565b90505b6001811115611e8c576f181899199a1a9b1b9c1cb0b131b232b360811b85600f1660108110611e4857611e486129c0565b1a60f81b828281518110611e5e57611e5e6129c0565b60200101906001600160f81b031916908160001a90535060049490941c93611e8581612d48565b9050611e17565b5083156118635760405162461bcd60e51b815260206004820181905260248201527f537472696e67733a20686578206c656e67746820696e73756666696369656e7460448201526064016107dc565b805480611f2a5760405162461bcd60e51b815260206004820152601b60248201527f436f756e7465723a2064656372656d656e74206f766572666c6f77000000000060448201526064016107dc565b600019019055565b60006107f07f8b73c3c69bb8fe3d512ecc4cf759cc79239f7b179b0ffacaa9a75d522b39400f611f61609a5490565b609b546040805160208101859052908101839052606081018290524660808201523060a082015260009060c0016040516020818303038152906040528051906020012090509392505050565b600080825160411415611fe45760208301516040840151606085015160001a611fd887828585612255565b94509450505050612016565b82516040141561200e5760208301516040840151612003868383612342565b935093505050612016565b506000905060025b9250929050565b803b6120815760405162461bcd60e51b815260206004820152602d60248201527f455243313936373a206e657720696d706c656d656e746174696f6e206973206e60448201526c1bdd08184818dbdb9d1c9858dd609a1b60648201526084016107dc565b7f360894a13ba1a3210667c828492db98dca3e2076cc3735a920a3ca505d382bbc80546001600160a01b0319166001600160a01b0392909216919091179055565b6060823b6121215760405162461bcd60e51b815260206004820152602660248201527f416464726573733a2064656c65676174652063616c6c20746f206e6f6e2d636f6044820152651b9d1c9858dd60d21b60648201526084016107dc565b600080846001600160a01b03168460405161213c9190612c38565b600060405180830381855af49150503d8060008114612177576040519150601f19603f3d011682016040523d82523d6000602084013e61217c565b606091505b50915091506121a48282604051806060016040528060278152602001612d8060279139612371565b95945050505050565b6121b68161201d565b6040516001600160a01b038216907fbc7cd75a20ee27fd9adebab32041f755214dbc6bffa90cc0225b39da2e5c2d3b90600090a250565b600054610100900460ff166122145760405162461bcd60e51b81526004016107dc90612c71565b815160209283012081519190920120609a91909155609b55565b600054610100900460ff166110d85760405162461bcd60e51b81526004016107dc90612c71565b6000807f7fffffffffffffffffffffffffffffff5d576e7357a4501ddfe92f46681b20a083111561228c5750600090506003612339565b8460ff16601b141580156122a457508460ff16601c14155b156122b55750600090506004612339565b6040805160008082526020820180845289905260ff881692820192909252606081018690526080810185905260019060a0016020604051602081039080840390855afa158015612309573d6000803e3d6000fd5b5050604051601f1901519150506001600160a01b03811661233257600060019250925050612339565b9150600090505b94509492505050565b6000806001600160ff1b03831660ff84901c601b0161236387828885612255565b935093505050935093915050565b60608315612380575081611863565b8251156123905782518084602001fd5b8160405162461bcd60e51b81526004016107dc91906125be565b8280546123b690612a9f565b90600052602060002090601f0160209004810192826123d8576000855561241e565b82601f106123f157805160ff191683800117855561241e565b8280016001018555821561241e579182015b8281111561241e578251825591602001919060010190612403565b5061242a92915061242e565b5090565b5b8082111561242a576000815560010161242f565b6001600160e01b031981168114610c7557600080fd5b60006020828403121561246b57600080fd5b813561186381612443565b634e487b7160e01b600052604160045260246000fd5b604051601f8201601f1916810167ffffffffffffffff811182821017156124b5576124b5612476565b604052919050565b600082601f8301126124ce57600080fd5b813567ffffffffffffffff8111156124e8576124e8612476565b6124fb601f8201601f191660200161248c565b81815284602083860101111561251057600080fd5b816020850160208301376000918101602001919091529392505050565b60006020828403121561253f57600080fd5b813567ffffffffffffffff81111561255657600080fd5b611d37848285016124bd565b60005b8381101561257d578181015183820152602001612565565b8381111561258c576000848401525b50505050565b600081518084526125aa816020860160208601612562565b601f01601f19169290920160200192915050565b6020815260006118636020830184612592565b6000602082840312156125e357600080fd5b5035919050565b80356001600160a01b038116811461260157600080fd5b919050565b6000806040838503121561261957600080fd5b612622836125ea565b946020939093013593505050565b6000602080838503121561264357600080fd5b823567ffffffffffffffff8082111561265b57600080fd5b818501915085601f83011261266f57600080fd5b81358181111561268157612681612476565b8060051b915061269284830161248c565b81815291830184019184810190888411156126ac57600080fd5b938501935b838510156126ca578435825293850193908501906126b1565b98975050505050505050565b6000806000606084860312156126eb57600080fd5b6126f4846125ea565b9250612702602085016125ea565b9150604084013590509250925092565b6000806040838503121561272557600080fd5b82359150612735602084016125ea565b90509250929050565b60008060008060008060c0878903121561275757600080fd5b612760876125ea565b955061276e602088016125ea565b945060408701359350606087013592506080870135915060a087013567ffffffffffffffff81111561279f57600080fd5b6127ab89828a016124bd565b9150509295509295509295565b6000602082840312156127ca57600080fd5b611863826125ea565b600080600080600080600060e0888a0312156127ee57600080fd5b6127f7886125ea565b9650612805602089016125ea565b9550612813604089016125ea565b9450606088013593506080880135925060a0880135915060c088013567ffffffffffffffff81111561284457600080fd5b6128508a828b016124bd565b91505092959891949750929550565b6000806040838503121561287257600080fd5b61287b836125ea565b9150602083013567ffffffffffffffff81111561289757600080fd5b6128a3858286016124bd565b9150509250929050565b600080604083850312156128c057600080fd5b823567ffffffffffffffff8111156128d757600080fd5b6128e3858286016124bd565b925050612735602084016125ea565b6000806040838503121561290557600080fd5b61290e836125ea565b91506020830135801515811461292357600080fd5b809150509250929050565b6000806000806080858703121561294457600080fd5b61294d856125ea565b935061295b602086016125ea565b925060408501359150606085013567ffffffffffffffff81111561297e57600080fd5b61298a878288016124bd565b91505092959194509250565b600080604083850312156129a957600080fd5b6129b2836125ea565b9150612735602084016125ea565b634e487b7160e01b600052603260045260246000fd5b634e487b7160e01b600052601160045260246000fd5b6000600019821415612a0057612a006129d6565b5060010190565b6020808252602c908201527f46756e6374696f6e206d7573742062652063616c6c6564207468726f7567682060408201526b19195b1959d85d1958d85b1b60a21b606082015260800190565b6020808252602c908201527f46756e6374696f6e206d7573742062652063616c6c6564207468726f7567682060408201526b6163746976652070726f787960a01b606082015260800190565b600181811c90821680612ab357607f821691505b60208210811415612ad457634e487b7160e01b600052602260045260246000fd5b50919050565b60008151612aec818560208601612562565b9290920192915050565b600080845481600182811c915080831680612b1257607f831692505b6020808410821415612b3257634e487b7160e01b86526022600452602486fd5b818015612b465760018114612b5757612b84565b60ff19861689528489019650612b84565b60008b81526020902060005b86811015612b7c5781548b820152908501908301612b63565b505084890196505b5050505050506121a48185612ada565b7f416363657373436f6e74726f6c3a206163636f756e7420000000000000000000815260008351612bcc816017850160208801612562565b7001034b99036b4b9b9b4b733903937b6329607d1b6017918401918201528351612bfd816028840160208801612562565b01602801949350505050565b634e487b7160e01b600052602160045260246000fd5b828152604060208201526000611d376040830184612592565b60008251612c4a818460208701612562565b9190910192915050565b600060208284031215612c6657600080fd5b815161186381612443565b6020808252602b908201527f496e697469616c697a61626c653a20636f6e7472616374206973206e6f74206960408201526a6e697469616c697a696e6760a81b606082015260800190565b634e487b7160e01b600052601260045260246000fd5b600082612ce157612ce1612cbc565b500490565b600082821015612cf857612cf86129d6565b500390565b600082612d0c57612d0c612cbc565b500690565b60008219821115612d2457612d246129d6565b500190565b6000816000190483118215151615612d4357612d436129d6565b500290565b600081612d5757612d576129d6565b50600019019056fe0be7dc2b6f1c4aa33bf833a508f2b20d047034d65c3c983b36058bc4f7d3080b416464726573733a206c6f772d6c6576656c2064656c65676174652063616c6c206661696c6564a2646970667358221220c6a3251acbeb81fa61410ec290c7a7670dd3186155da8499d9cac1604effc3f164736f6c634300080a0033",
  "devdoc": {
    "kind": "dev",
    "methods": {
      "getRoleAdmin(bytes32)": {
        "details": "Returns the admin role that controls `role`. See {grantRole} and {revokeRole}. To change a role's admin, use {_setRoleAdmin}."
      },
      "grantRole(bytes32,address)": {
        "details": "Grants `role` to `account`. If `account` had not been already granted `role`, emits a {RoleGranted} event. Requirements: - the caller must have ``role``'s admin role."
      },
      "hasRole(bytes32,address)": {
        "details": "Returns `true` if `account` has been granted `role`."
      },
      "owner()": {
        "details": "Returns the address of the current owner."
      },
      "renounceOwnership()": {
        "details": "Leaves the contract without owner. It will not be possible to call `onlyOwner` functions anymore. Can only be called by the current owner. NOTE: Renouncing ownership will leave the contract without an owner, thereby removing any functionality that is only available to the owner."
      },
      "renounceRole(bytes32,address)": {
        "details": "Revokes `role` from the calling account. Roles are often managed via {grantRole} and {revokeRole}: this function's purpose is to provide a mechanism for accounts to lose their privileges if they are compromised (such as when a trusted device is misplaced). If the calling account had been revoked `role`, emits a {RoleRevoked} event. Requirements: - the caller must be `account`."
      },
      "revokeRole(bytes32,address)": {
        "details": "Revokes `role` from `account`. If `account` had been granted `role`, emits a {RoleRevoked} event. Requirements: - the caller must have ``role``'s admin role."
      },
      "transferOwnership(address)": {
        "details": "Transfers ownership of the contract to a new account (`newOwner`). Can only be called by the current owner."
      },
      "upgradeTo(address)": {
        "details": "Upgrade the implementation of the proxy to `newImplementation`. Calls {_authorizeUpgrade}. Emits an {Upgraded} event."
      },
      "upgradeToAndCall(address,bytes)": {
        "details": "Upgrade the implementation of the proxy to `newImplementation`, and subsequently execute the function call encoded in `data`. Calls {_authorizeUpgrade}. Emits an {Upgraded} event."
      }
    },
    "version": 1
  },
  "userdoc": {
    "kind": "user",
    "methods": {
      "addressToId(address)": {
        "notice": "Stores address to membership id"
      },
      "adminMint(address,uint256)": {
        "notice": "Mint mew membership from the manager role"
      },
      "adminRevokeMemberships(uint256[])": {
        "notice": "Admin function to revoke membership for user"
      },
      "approve(address,uint256)": {
        "notice": "approvals not supported"
      },
      "balanceOf(address)": {
        "notice": "blanaceOf getter for NFT compat"
      },
      "getApproved(uint256)": {
        "notice": "approvals not supported"
      },
      "initialize(string,address)": {
        "notice": "Upgradeable init fn"
      },
      "isApprovedForAll(address,address)": {
        "notice": "approvals not supported"
      },
      "mintWithSign(address,address,uint256,uint256,uint256,bytes)": {
        "notice": "Mint with signed message data"
      },
      "name()": {
        "notice": "NFT Metadata Name"
      },
      "ownerOf(uint256)": {
        "notice": "ownerOf getter, checks if token exists"
      },
      "safeTransferFrom(address,address,uint256)": {
        "notice": "not supported"
      },
      "safeTransferFrom(address,address,uint256,bytes)": {
        "notice": "not supported"
      },
      "setApprovalForAll(address,bool)": {
        "notice": "approvals not supported"
      },
      "symbol()": {
        "notice": "NFT Metadata Symbol"
      },
      "tokenURI(uint256)": {
        "notice": "Getter for url server nft base"
      },
      "totalSupply()": {
        "notice": "erc721 enumerable partial impl"
      },
      "transferFrom(address,address,uint256)": {
        "notice": "Admin function to transfer a wallet to a new NFT address"
      },
      "transferWithSign(address,address,address,uint256,uint256,uint256,bytes)": {
        "notice": "Transfer with signed message data"
      },
      "updateUrlBase(string)": {
        "notice": "admin function to update base uri"
      },
      "urlBase()": {
        "notice": "URLBase for metadata"
      },
      "usedNonces(uint256)": {
        "notice": "list of used signature nonces"
      }
    },
    "version": 1
  },
  "storageLayout": {
    "storage": [
      {
        "astId": 964,
        "contract": "contracts/FWBMembershipNFT.sol:FWBMembershipNFT",
        "label": "_initialized",
        "offset": 0,
        "slot": "0",
        "type": "t_bool"
      },
      {
        "astId": 967,
        "contract": "contracts/FWBMembershipNFT.sol:FWBMembershipNFT",
        "label": "_initializing",
        "offset": 1,
        "slot": "0",
        "type": "t_bool"
      },
      {
        "astId": 1573,
        "contract": "contracts/FWBMembershipNFT.sol:FWBMembershipNFT",
        "label": "__gap",
        "offset": 0,
        "slot": "1",
        "type": "t_array(t_uint256)50_storage"
      },
      {
        "astId": 420,
        "contract": "contracts/FWBMembershipNFT.sol:FWBMembershipNFT",
        "label": "_owner",
        "offset": 0,
        "slot": "51",
        "type": "t_address"
      },
      {
        "astId": 534,
        "contract": "contracts/FWBMembershipNFT.sol:FWBMembershipNFT",
        "label": "__gap",
        "offset": 0,
        "slot": "52",
        "type": "t_array(t_uint256)49_storage"
      },
      {
        "astId": 2574,
        "contract": "contracts/FWBMembershipNFT.sol:FWBMembershipNFT",
        "label": "__gap",
        "offset": 0,
        "slot": "101",
        "type": "t_array(t_uint256)50_storage"
      },
      {
        "astId": 3054,
        "contract": "contracts/FWBMembershipNFT.sol:FWBMembershipNFT",
        "label": "numberTokens",
        "offset": 0,
        "slot": "151",
        "type": "t_struct(Counter)1580_storage"
      },
      {
        "astId": 3059,
        "contract": "contracts/FWBMembershipNFT.sol:FWBMembershipNFT",
        "label": "addressToId",
        "offset": 0,
        "slot": "152",
        "type": "t_mapping(t_address,t_uint256)"
      },
      {
        "astId": 3064,
        "contract": "contracts/FWBMembershipNFT.sol:FWBMembershipNFT",
        "label": "idToAddress",
        "offset": 0,
        "slot": "153",
        "type": "t_mapping(t_uint256,t_address)"
      },
      {
        "astId": 2389,
        "contract": "contracts/FWBMembershipNFT.sol:FWBMembershipNFT",
        "label": "_HASHED_NAME",
        "offset": 0,
        "slot": "154",
        "type": "t_bytes32"
      },
      {
        "astId": 2391,
        "contract": "contracts/FWBMembershipNFT.sol:FWBMembershipNFT",
        "label": "_HASHED_VERSION",
        "offset": 0,
        "slot": "155",
        "type": "t_bytes32"
      },
      {
        "astId": 2528,
        "contract": "contracts/FWBMembershipNFT.sol:FWBMembershipNFT",
        "label": "__gap",
        "offset": 0,
        "slot": "156",
        "type": "t_array(t_uint256)50_storage"
      },
      {
        "astId": 48,
        "contract": "contracts/FWBMembershipNFT.sol:FWBMembershipNFT",
        "label": "_roles",
        "offset": 0,
        "slot": "206",
        "type": "t_mapping(t_bytes32,t_struct(RoleData)43_storage)"
      },
      {
        "astId": 335,
        "contract": "contracts/FWBMembershipNFT.sol:FWBMembershipNFT",
        "label": "__gap",
        "offset": 0,
        "slot": "207",
        "type": "t_array(t_uint256)49_storage"
      },
      {
        "astId": 946,
        "contract": "contracts/FWBMembershipNFT.sol:FWBMembershipNFT",
        "label": "__gap",
        "offset": 0,
        "slot": "256",
        "type": "t_array(t_uint256)50_storage"
      },
      {
        "astId": 1141,
        "contract": "contracts/FWBMembershipNFT.sol:FWBMembershipNFT",
        "label": "__gap",
        "offset": 0,
        "slot": "306",
        "type": "t_array(t_uint256)50_storage"
      },
      {
        "astId": 2632,
        "contract": "contracts/FWBMembershipNFT.sol:FWBMembershipNFT",
        "label": "urlBase",
        "offset": 0,
        "slot": "356",
        "type": "t_string_storage"
      },
      {
        "astId": 2826,
        "contract": "contracts/FWBMembershipNFT.sol:FWBMembershipNFT",
        "label": "usedNonces",
        "offset": 0,
        "slot": "357",
        "type": "t_mapping(t_uint256,t_bool)"
      }
    ],
    "types": {
      "t_address": {
        "encoding": "inplace",
        "label": "address",
        "numberOfBytes": "20"
      },
      "t_array(t_uint256)49_storage": {
        "base": "t_uint256",
        "encoding": "inplace",
        "label": "uint256[49]",
        "numberOfBytes": "1568"
      },
      "t_array(t_uint256)50_storage": {
        "base": "t_uint256",
        "encoding": "inplace",
        "label": "uint256[50]",
        "numberOfBytes": "1600"
      },
      "t_bool": {
        "encoding": "inplace",
        "label": "bool",
        "numberOfBytes": "1"
      },
      "t_bytes32": {
        "encoding": "inplace",
        "label": "bytes32",
        "numberOfBytes": "32"
      },
      "t_mapping(t_address,t_bool)": {
        "encoding": "mapping",
        "key": "t_address",
        "label": "mapping(address => bool)",
        "numberOfBytes": "32",
        "value": "t_bool"
      },
      "t_mapping(t_address,t_uint256)": {
        "encoding": "mapping",
        "key": "t_address",
        "label": "mapping(address => uint256)",
        "numberOfBytes": "32",
        "value": "t_uint256"
      },
      "t_mapping(t_bytes32,t_struct(RoleData)43_storage)": {
        "encoding": "mapping",
        "key": "t_bytes32",
        "label": "mapping(bytes32 => struct AccessControlUpgradeable.RoleData)",
        "numberOfBytes": "32",
        "value": "t_struct(RoleData)43_storage"
      },
      "t_mapping(t_uint256,t_address)": {
        "encoding": "mapping",
        "key": "t_uint256",
        "label": "mapping(uint256 => address)",
        "numberOfBytes": "32",
        "value": "t_address"
      },
      "t_mapping(t_uint256,t_bool)": {
        "encoding": "mapping",
        "key": "t_uint256",
        "label": "mapping(uint256 => bool)",
        "numberOfBytes": "32",
        "value": "t_bool"
      },
      "t_string_storage": {
        "encoding": "bytes",
        "label": "string",
        "numberOfBytes": "32"
      },
      "t_struct(Counter)1580_storage": {
        "encoding": "inplace",
        "label": "struct CountersUpgradeable.Counter",
        "members": [
          {
            "astId": 1579,
            "contract": "contracts/FWBMembershipNFT.sol:FWBMembershipNFT",
            "label": "_value",
            "offset": 0,
            "slot": "0",
            "type": "t_uint256"
          }
        ],
        "numberOfBytes": "32"
      },
      "t_struct(RoleData)43_storage": {
        "encoding": "inplace",
        "label": "struct AccessControlUpgradeable.RoleData",
        "members": [
          {
            "astId": 40,
            "contract": "contracts/FWBMembershipNFT.sol:FWBMembershipNFT",
            "label": "members",
            "offset": 0,
            "slot": "0",
            "type": "t_mapping(t_address,t_bool)"
          },
          {
            "astId": 42,
            "contract": "contracts/FWBMembershipNFT.sol:FWBMembershipNFT",
            "label": "adminRole",
            "offset": 0,
            "slot": "1",
            "type": "t_bytes32"
          }
        ],
        "numberOfBytes": "64"
      },
      "t_uint256": {
        "encoding": "inplace",
        "label": "uint256",
        "numberOfBytes": "32"
      }
    }
  }
}