{
  "address": "0xCE355EFd5D78eB660272ea60D7Dab4Ac78704D7F",
  "abi": [
    {
      "anonymous": false,
      "inputs": [
        {
          "indexed": false,
          "internalType": "address",
          "name": "previousAdmin",
          "type": "address"
        },
        {
          "indexed": false,
          "internalType": "address",
          "name": "newAdmin",
          "type": "address"
        }
      ],
      "name": "AdminChanged",
      "type": "event"
    },
    {
      "anonymous": false,
      "inputs": [
        {
          "indexed": true,
          "internalType": "address",
          "name": "owner",
          "type": "address"
        },
        {
          "indexed": true,
          "internalType": "address",
          "name": "approved",
          "type": "address"
        },
        {
          "indexed": true,
          "internalType": "uint256",
          "name": "tokenId",
          "type": "uint256"
        }
      ],
      "name": "Approval",
      "type": "event"
    },
    {
      "anonymous": false,
      "inputs": [
        {
          "indexed": true,
          "internalType": "address",
          "name": "owner",
          "type": "address"
        },
        {
          "indexed": true,
          "internalType": "address",
          "name": "operator",
          "type": "address"
        },
        {
          "indexed": false,
          "internalType": "bool",
          "name": "approved",
          "type": "bool"
        }
      ],
      "name": "ApprovalForAll",
      "type": "event"
    },
    {
      "anonymous": false,
      "inputs": [
        {
          "indexed": true,
          "internalType": "address",
          "name": "beacon",
          "type": "address"
        }
      ],
      "name": "BeaconUpgraded",
      "type": "event"
    },
    {
      "anonymous": false,
      "inputs": [
        {
          "indexed": true,
          "internalType": "address",
          "name": "_signer",
          "type": "address"
        }
      ],
      "name": "NewSigner",
      "type": "event"
    },
    {
      "anonymous": false,
      "inputs": [
        {
          "indexed": true,
          "internalType": "address",
          "name": "previousOwner",
          "type": "address"
        },
        {
          "indexed": true,
          "internalType": "address",
          "name": "newOwner",
          "type": "address"
        }
      ],
      "name": "OwnershipTransferred",
      "type": "event"
    },
    {
      "anonymous": false,
      "inputs": [
        {
          "indexed": true,
          "internalType": "address",
          "name": "from",
          "type": "address"
        },
        {
          "indexed": true,
          "internalType": "address",
          "name": "to",
          "type": "address"
        },
        {
          "indexed": true,
          "internalType": "uint256",
          "name": "tokenId",
          "type": "uint256"
        }
      ],
      "name": "Transfer",
      "type": "event"
    },
    {
      "anonymous": false,
      "inputs": [
        {
          "indexed": true,
          "internalType": "address",
          "name": "implementation",
          "type": "address"
        }
      ],
      "name": "Upgraded",
      "type": "event"
    },
    {
      "inputs": [
        {
          "internalType": "address",
          "name": "",
          "type": "address"
        }
      ],
      "name": "addressToId",
      "outputs": [
        {
          "internalType": "uint256",
          "name": "",
          "type": "uint256"
        }
      ],
      "stateMutability": "view",
      "type": "function"
    },
    {
      "inputs": [
        {
          "internalType": "address",
          "name": "to",
          "type": "address"
        },
        {
          "internalType": "uint256",
          "name": "id",
          "type": "uint256"
        }
      ],
      "name": "adminMint",
      "outputs": [],
      "stateMutability": "nonpayable",
      "type": "function"
    },
    {
      "inputs": [
        {
          "internalType": "uint256[]",
          "name": "ids",
          "type": "uint256[]"
        }
      ],
      "name": "adminRevokeMemberships",
      "outputs": [],
      "stateMutability": "nonpayable",
      "type": "function"
    },
    {
      "inputs": [
        {
          "internalType": "address",
          "name": "",
          "type": "address"
        },
        {
          "internalType": "uint256",
          "name": "",
          "type": "uint256"
        }
      ],
      "name": "approve",
      "outputs": [],
      "stateMutability": "nonpayable",
      "type": "function"
    },
    {
      "inputs": [
        {
          "internalType": "address",
          "name": "user",
          "type": "address"
        }
      ],
      "name": "balanceOf",
      "outputs": [
        {
          "internalType": "uint256",
          "name": "",
          "type": "uint256"
        }
      ],
      "stateMutability": "view",
      "type": "function"
    },
    {
      "inputs": [
        {
          "internalType": "uint256",
          "name": "id",
          "type": "uint256"
        }
      ],
      "name": "burn",
      "outputs": [],
      "stateMutability": "nonpayable",
      "type": "function"
    },
    {
      "inputs": [
        {
          "internalType": "uint256",
          "name": "",
          "type": "uint256"
        }
      ],
      "name": "getApproved",
      "outputs": [
        {
          "internalType": "address",
          "name": "",
          "type": "address"
        }
      ],
      "stateMutability": "view",
      "type": "function"
    },
    {
      "inputs": [
        {
          "internalType": "uint256",
          "name": "",
          "type": "uint256"
        }
      ],
      "name": "idToAddress",
      "outputs": [
        {
          "internalType": "address",
          "name": "",
          "type": "address"
        }
      ],
      "stateMutability": "view",
      "type": "function"
    },
    {
      "inputs": [
        {
          "internalType": "string",
          "name": "_urlBase",
          "type": "string"
        },
        {
          "internalType": "address",
          "name": "_signer",
          "type": "address"
        }
      ],
      "name": "initialize",
      "outputs": [],
      "stateMutability": "nonpayable",
      "type": "function"
    },
    {
      "inputs": [
        {
          "internalType": "address",
          "name": "",
          "type": "address"
        },
        {
          "internalType": "address",
          "name": "",
          "type": "address"
        }
      ],
      "name": "isApprovedForAll",
      "outputs": [
        {
          "internalType": "bool",
          "name": "",
          "type": "bool"
        }
      ],
      "stateMutability": "view",
      "type": "function"
    },
    {
      "inputs": [
        {
          "internalType": "address",
          "name": "to",
          "type": "address"
        },
        {
          "internalType": "uint256",
          "name": "tokenId",
          "type": "uint256"
        },
        {
          "internalType": "uint256",
          "name": "deadline",
          "type": "uint256"
        },
        {
          "internalType": "uint256",
          "name": "nonce",
          "type": "uint256"
        },
        {
          "internalType": "bytes",
          "name": "signature",
          "type": "bytes"
        }
      ],
      "name": "mintWithSign",
      "outputs": [],
      "stateMutability": "nonpayable",
      "type": "function"
    },
    {
      "inputs": [],
      "name": "name",
      "outputs": [
        {
          "internalType": "string",
          "name": "",
          "type": "string"
        }
      ],
      "stateMutability": "view",
      "type": "function"
    },
    {
      "inputs": [],
      "name": "owner",
      "outputs": [
        {
          "internalType": "address",
          "name": "",
          "type": "address"
        }
      ],
      "stateMutability": "view",
      "type": "function"
    },
    {
      "inputs": [
        {
          "internalType": "uint256",
          "name": "id",
          "type": "uint256"
        }
      ],
      "name": "ownerOf",
      "outputs": [
        {
          "internalType": "address",
          "name": "",
          "type": "address"
        }
      ],
      "stateMutability": "view",
      "type": "function"
    },
    {
      "inputs": [],
      "name": "renounceOwnership",
      "outputs": [],
      "stateMutability": "nonpayable",
      "type": "function"
    },
    {
      "inputs": [
        {
          "internalType": "address",
          "name": "",
          "type": "address"
        },
        {
          "internalType": "address",
          "name": "",
          "type": "address"
        },
        {
          "internalType": "uint256",
          "name": "",
          "type": "uint256"
        }
      ],
      "name": "safeTransferFrom",
      "outputs": [],
      "stateMutability": "nonpayable",
      "type": "function"
    },
    {
      "inputs": [
        {
          "internalType": "address",
          "name": "",
          "type": "address"
        },
        {
          "internalType": "address",
          "name": "",
          "type": "address"
        },
        {
          "internalType": "uint256",
          "name": "",
          "type": "uint256"
        },
        {
          "internalType": "bytes",
          "name": "",
          "type": "bytes"
        }
      ],
      "name": "safeTransferFrom",
      "outputs": [],
      "stateMutability": "nonpayable",
      "type": "function"
    },
    {
      "inputs": [
        {
          "internalType": "address",
          "name": "",
          "type": "address"
        },
        {
          "internalType": "bool",
          "name": "",
          "type": "bool"
        }
      ],
      "name": "setApprovalForAll",
      "outputs": [],
      "stateMutability": "nonpayable",
      "type": "function"
    },
    {
      "inputs": [
        {
          "internalType": "address",
          "name": "_signer",
          "type": "address"
        }
      ],
      "name": "setSigner",
      "outputs": [],
      "stateMutability": "nonpayable",
      "type": "function"
    },
    {
      "inputs": [],
      "name": "signer",
      "outputs": [
        {
          "internalType": "address",
          "name": "",
          "type": "address"
        }
      ],
      "stateMutability": "view",
      "type": "function"
    },
    {
      "inputs": [
        {
          "internalType": "bytes4",
          "name": "interfaceId",
          "type": "bytes4"
        }
      ],
      "name": "supportsInterface",
      "outputs": [
        {
          "internalType": "bool",
          "name": "",
          "type": "bool"
        }
      ],
      "stateMutability": "view",
      "type": "function"
    },
    {
      "inputs": [],
      "name": "symbol",
      "outputs": [
        {
          "internalType": "string",
          "name": "",
          "type": "string"
        }
      ],
      "stateMutability": "view",
      "type": "function"
    },
    {
      "inputs": [
        {
          "internalType": "uint256",
          "name": "id",
          "type": "uint256"
        }
      ],
      "name": "tokenURI",
      "outputs": [
        {
          "internalType": "string",
          "name": "",
          "type": "string"
        }
      ],
      "stateMutability": "view",
      "type": "function"
    },
    {
      "inputs": [],
      "name": "totalSupply",
      "outputs": [
        {
          "internalType": "uint256",
          "name": "",
          "type": "uint256"
        }
      ],
      "stateMutability": "view",
      "type": "function"
    },
    {
      "inputs": [
        {
          "internalType": "address",
          "name": "from",
          "type": "address"
        },
        {
          "internalType": "address",
          "name": "to",
          "type": "address"
        },
        {
          "internalType": "uint256",
          "name": "checkTokenId",
          "type": "uint256"
        }
      ],
      "name": "transferFrom",
      "outputs": [],
      "stateMutability": "nonpayable",
      "type": "function"
    },
    {
      "inputs": [
        {
          "internalType": "address",
          "name": "newOwner",
          "type": "address"
        }
      ],
      "name": "transferOwnership",
      "outputs": [],
      "stateMutability": "nonpayable",
      "type": "function"
    },
    {
      "inputs": [
        {
          "internalType": "address",
          "name": "from",
          "type": "address"
        },
        {
          "internalType": "address",
          "name": "to",
          "type": "address"
        },
        {
          "internalType": "uint256",
          "name": "tokenId",
          "type": "uint256"
        },
        {
          "internalType": "uint256",
          "name": "deadline",
          "type": "uint256"
        },
        {
          "internalType": "uint256",
          "name": "nonce",
          "type": "uint256"
        },
        {
          "internalType": "bytes",
          "name": "signature",
          "type": "bytes"
        }
      ],
      "name": "transferWithSign",
      "outputs": [],
      "stateMutability": "nonpayable",
      "type": "function"
    },
    {
      "inputs": [
        {
          "internalType": "string",
          "name": "newUrlBase",
          "type": "string"
        }
      ],
      "name": "updateUrlBase",
      "outputs": [],
      "stateMutability": "nonpayable",
      "type": "function"
    },
    {
      "inputs": [
        {
          "internalType": "address",
          "name": "newImplementation",
          "type": "address"
        }
      ],
      "name": "upgradeTo",
      "outputs": [],
      "stateMutability": "nonpayable",
      "type": "function"
    },
    {
      "inputs": [
        {
          "internalType": "address",
          "name": "newImplementation",
          "type": "address"
        },
        {
          "internalType": "bytes",
          "name": "data",
          "type": "bytes"
        }
      ],
      "name": "upgradeToAndCall",
      "outputs": [],
      "stateMutability": "payable",
      "type": "function"
    },
    {
      "inputs": [],
      "name": "urlBase",
      "outputs": [
        {
          "internalType": "string",
          "name": "",
          "type": "string"
        }
      ],
      "stateMutability": "view",
      "type": "function"
    }
  ],
  "transactionHash": "0x325af9e7e47dc4037ac6cf5a1d7019d9e4d928dd5dc37c06b6e43e1add4fa4ec",
  "args": [],
  "solcInputHash": "a0de4787427aac48eec9465e01d9fe13",
  "bytecode": "0x60e0604052306080527f54513ed2172ae8a57656476818a5b3c92ae33d5cae25b64f8f81ac46f49b8e8c60a0527fc8a1d18a00509d928c968d64d44bf39bff38b0fa3208b98e254da5531093226560c05234801561005c57600080fd5b5060805160a05160c0516128566100a1600039600061100501526000610836015260008181610a3601528181610a7601528181610b710152610bb101526128566000f3fe6080604052600436106101d85760003560e01c80636352211e11610102578063b88d4fde11610095578063e58306f911610064578063e58306f9146105a8578063e78191ad146105c8578063e985e9c5146105dd578063f2fde38b1461060057600080fd5b8063b88d4fde14610520578063c6bb9f151461053b578063c87b56dd1461055b578063cb0e0d7d1461057b57600080fd5b80637ab4339d116100d15780637ab4339d146104955780638da5cb5b146104b557806395d89b41146104d3578063a22cb4651461050557600080fd5b80636352211e146104205780636c19e7831461044057806370a0823114610460578063715018a61461048057600080fd5b80631e79ad421161017a5780633659cfe6116101495780633659cfe6146103b257806342842e0e146103d257806342966c68146103ed5780634f1ef2861461040d57600080fd5b80631e79ad421461031b578063238ac9331461033b57806323b872dd1461035c5780632a2d0c471461037c57600080fd5b8063081812fc116101b6578063081812fc1461027f578063095ea7b3146102b857806318160ddd146102d857806319e15ba1146102fb57600080fd5b806301ffc9a7146101dd57806302d9e6961461021257806306fdde0314610234575b600080fd5b3480156101e957600080fd5b506101fd6101f8366004611fb1565b610620565b60405190151581526020015b60405180910390f35b34801561021e57600080fd5b5061023261022d366004612085565b610672565b005b34801561024057600080fd5b50610272604051806040016040528060128152602001711195d08813595b58995c9cda1a5c0813919560721b81525081565b6040516102099190612112565b34801561028b57600080fd5b506102a061029a366004612125565b50600090565b6040516001600160a01b039091168152602001610209565b3480156102c457600080fd5b506102326102d336600461215a565b6106bd565b3480156102e457600080fd5b506102ed610714565b604051908152602001610209565b34801561030757600080fd5b50610232610316366004612184565b610724565b34801561032757600080fd5b506102326103363660046121ef565b610925565b34801561034757600080fd5b50610133546102a0906001600160a01b031681565b34801561036857600080fd5b50610232610377366004612295565b61098f565b34801561038857600080fd5b506102a0610397366004612125565b6099602052600090815260409020546001600160a01b031681565b3480156103be57600080fd5b506102326103cd3660046122d1565b610a2b565b3480156103de57600080fd5b506102326102d3366004612295565b3480156103f957600080fd5b50610232610408366004612125565b610af4565b61023261041b3660046122ec565b610b66565b34801561042c57600080fd5b506102a061043b366004612125565b610c1c565b34801561044c57600080fd5b5061023261045b3660046122d1565b610c9c565b34801561046c57600080fd5b506102ed61047b3660046122d1565b610d11565b34801561048c57600080fd5b50610232610d42565b3480156104a157600080fd5b506102326104b036600461233a565b610d78565b3480156104c157600080fd5b506033546001600160a01b03166102a0565b3480156104df57600080fd5b50610272604051806040016040528060068152602001654657424d454d60d01b81525081565b34801561051157600080fd5b506102326102d3366004612388565b34801561052c57600080fd5b506102326102d33660046123c4565b34801561054757600080fd5b5061023261055636600461242c565b610ef3565b34801561056757600080fd5b50610272610576366004612125565b6110e5565b34801561058757600080fd5b506102ed6105963660046122d1565b60986020526000908152604090205481565b3480156105b457600080fd5b506102326105c336600461215a565b61117f565b3480156105d457600080fd5b506102726111b3565b3480156105e957600080fd5b506101fd6105f83660046124a6565b600092915050565b34801561060c57600080fd5b5061023261061b3660046122d1565b611242565b60006301ffc9a760e01b6001600160e01b03198316148061065157506001600160e01b031982166380ac58cd60e01b145b8061066c57506001600160e01b03198216635b5e139f60e01b145b92915050565b6033546001600160a01b031633146106a55760405162461bcd60e51b815260040161069c906124d0565b60405180910390fd5b80516106b990610132906020840190611f02565b5050565b60405162461bcd60e51b815260206004820152602660248201527f466e206e6f7420737570706f727465643a206e6f6e7472616e736665727261626044820152651b194813919560d21b606482015260840161069c565b600061071f60975490565b905090565b81838042111561076d5760405162461bcd60e51b8152602060048201526014602482015273111958591b1a5b99481d1a5b59481c185cdcd95960621b604482015260640161069c565b6000828152610134602052604090205460ff16156107ba5760405162461bcd60e51b815260206004820152600a6024820152691b9bdb98d9481d5cd95960b21b604482015260640161069c565b600082815261013460205260409020805460ff191660011790556001600160a01b038716331461082c5760405162461bcd60e51b815260206004820152601c60248201527f4e6565647320746f20626520726563656976696e672077616c6c657400000000604482015260640161069c565b61013354604080517f000000000000000000000000000000000000000000000000000000000000000060208201526001600160a01b038a811692820192909252606081018990526080810188905260a081018790526108b39291909116906108ad9060c0015b604051602081830303815290604052805190602001206112da565b85611328565b6109125760405162461bcd60e51b815260206004820152602a60248201527f4e46545065726d69743a3a6d696e74576974685369676e3a20496e76616c6964604482015269207369676e617475726560b01b606482015260840161069c565b61091c8787611476565b50505050505050565b6033546001600160a01b0316331461094f5760405162461bcd60e51b815260040161069c906124d0565b60005b81518110156106b95761097d82828151811061097057610970612505565b6020026020010151611550565b8061098781612531565b915050610952565b6033546001600160a01b031633146109b95760405162461bcd60e51b815260040161069c906124d0565b6001600160a01b038316600090815260986020526040902054818114610a1a5760405162461bcd60e51b815260206004820152601660248201527508aa4a47440a8ded6cadc40928840dad2e6dac2e8c6d60531b604482015260640161069c565b610a258484836115cc565b50505050565b306001600160a01b037f0000000000000000000000000000000000000000000000000000000000000000161415610a745760405162461bcd60e51b815260040161069c9061254c565b7f00000000000000000000000000000000000000000000000000000000000000006001600160a01b0316610aa6611642565b6001600160a01b031614610acc5760405162461bcd60e51b815260040161069c90612598565b610ad581611670565b60408051600080825260208201909252610af19183919061169a565b50565b610afd81610c1c565b6001600160a01b0316336001600160a01b031614610b5d5760405162461bcd60e51b815260206004820152601b60248201527f4e4654204275726e3a206e6565647320746f206265206f776e65720000000000604482015260640161069c565b610af181611550565b306001600160a01b037f0000000000000000000000000000000000000000000000000000000000000000161415610baf5760405162461bcd60e51b815260040161069c9061254c565b7f00000000000000000000000000000000000000000000000000000000000000006001600160a01b0316610be1611642565b6001600160a01b031614610c075760405162461bcd60e51b815260040161069c90612598565b610c1082611670565b6106b98282600161169a565b6000818152609960205260408120546001600160a01b0316610c805760405162461bcd60e51b815260206004820152601c60248201527f4552433732313a20546f6b656e20646f6573206e6f7420657869737400000000604482015260640161069c565b506000908152609960205260409020546001600160a01b031690565b6033546001600160a01b03163314610cc65760405162461bcd60e51b815260040161069c906124d0565b61013380546001600160a01b0319166001600160a01b0383169081179091556040517fffafe5c39be83f4bcf20d7e1a150f6e21c1858ea0948315ba84b6b1c386d45bb90600090a250565b6001600160a01b03811660009081526098602052604081205415610d36576001610d39565b60005b60ff1692915050565b6033546001600160a01b03163314610d6c5760405162461bcd60e51b815260040161069c906124d0565b610d7660006117e5565b565b600054610100900460ff16610d935760005460ff1615610d97565b303b155b610dfa5760405162461bcd60e51b815260206004820152602e60248201527f496e697469616c697a61626c653a20636f6e747261637420697320616c72656160448201526d191e481a5b9a5d1a585b1a5e995960921b606482015260840161069c565b600054610100900460ff16158015610e1c576000805461ffff19166101011790555b610e24611837565b610e6f6040518060400160405280601081526020016f1195d093595b58995c9cda1a5c13919560821b815250604051806040016040528060018152602001603160f81b81525061186e565b610e7761189f565b610e7f6118d6565b8251610e9390610132906020860190611f02565b5061013380546001600160a01b0319166001600160a01b0384169081179091556040517fffafe5c39be83f4bcf20d7e1a150f6e21c1858ea0948315ba84b6b1c386d45bb90600090a28015610eee576000805461ff00191690555b505050565b818380421115610f3c5760405162461bcd60e51b8152602060048201526014602482015273111958591b1a5b99481d1a5b59481c185cdcd95960621b604482015260640161069c565b6000828152610134602052604090205460ff1615610f895760405162461bcd60e51b815260206004820152600a6024820152691b9bdb98d9481d5cd95960b21b604482015260640161069c565b600082815261013460205260409020805460ff191660011790556001600160a01b0387163314610ffb5760405162461bcd60e51b815260206004820152601c60248201527f4e6565647320746f20626520726563656976696e672077616c6c657400000000604482015260640161069c565b61013354604080517f000000000000000000000000000000000000000000000000000000000000000060208201526001600160a01b038b81169282019290925289821660608201526080810189905260a0810188905260c0810187905261106d9291909116906108ad9060e001610892565b6110d05760405162461bcd60e51b815260206004820152602e60248201527f4e46545065726d69743a3a7472616e73666572576974685369676e3a20496e7660448201526d616c6964207369676e617475726560901b606482015260840161069c565b6110db8888886115cc565b5050505050505050565b6000818152609960205260409020546060906001600160a01b031661114c5760405162461bcd60e51b815260206004820152601c60248201527f4552433732313a20546f6b656e20646f6573206e6f7420657869737400000000604482015260640161069c565b610132611158836118fd565b60405160200161116992919061263b565b6040516020818303038152906040529050919050565b6033546001600160a01b031633146111a95760405162461bcd60e51b815260040161069c906124d0565b6106b98282611476565b61013280546111c1906125e4565b80601f01602080910402602001604051908101604052809291908181526020018280546111ed906125e4565b801561123a5780601f1061120f5761010080835404028352916020019161123a565b820191906000526020600020905b81548152906001019060200180831161121d57829003601f168201915b505050505081565b6033546001600160a01b0316331461126c5760405162461bcd60e51b815260040161069c906124d0565b6001600160a01b0381166112d15760405162461bcd60e51b815260206004820152602660248201527f4f776e61626c653a206e6577206f776e657220697320746865207a65726f206160448201526564647265737360d01b606482015260840161069c565b610af1816117e5565b600061066c6112e7611a03565b8360405161190160f01b6020820152602281018390526042810182905260009060620160405160208183030381529060405280519060200120905092915050565b60008060006113378585611a7e565b90925090506000816004811115611350576113506126d9565b14801561136e5750856001600160a01b0316826001600160a01b0316145b1561137e5760019250505061146f565b600080876001600160a01b0316631626ba7e60e01b88886040516024016113a69291906126ef565b60408051601f198184030181529181526020820180516001600160e01b03166001600160e01b03199094169390931790925290516113e49190612708565b600060405180830381855afa9150503d806000811461141f576040519150601f19603f3d011682016040523d82523d6000602084013e611424565b606091505b5091509150818015611437575080516020145b801561146857508051630b135d3f60e11b9061145c9083016020908101908401612724565b6001600160e01b031916145b9450505050505b9392505050565b6000818152609960205260409020546001600160a01b0316156114d35760405162461bcd60e51b8152602060048201526015602482015274135a5b9d0e88185b1c9958591e4818db185a5b5959605a1b604482015260640161069c565b6001600160a01b038216158015906114ea57508015155b6115365760405162461bcd60e51b815260206004820152601f60248201527f4d696e743a2063616e6e6f74206d696e74206e756c6c206964206f7220746f00604482015260640161069c565b611544609780546001019055565b6106b9600083836115cc565b600061155b82610c1c565b90506115676097611aee565b600082815260996020908152604080832080546001600160a01b03191690556001600160a01b038416808452609890925280832083905551849291907fddf252ad1be2c89b69c2b068fc378daa952ba7f163c4a11628f55a4df523b3ef908390a45050565b6001600160a01b0383811660008181526098602081815260408084208490558684526099825280842080546001600160a01b031916968916968717905585845291905280822085905551849392917fddf252ad1be2c89b69c2b068fc378daa952ba7f163c4a11628f55a4df523b3ef91a4505050565b7f360894a13ba1a3210667c828492db98dca3e2076cc3735a920a3ca505d382bbc546001600160a01b031690565b6033546001600160a01b03163314610af15760405162461bcd60e51b815260040161069c906124d0565b60006116a4611642565b90506116af84611b45565b6000835111806116bc5750815b156116cd576116cb8484611bea565b505b7f4910fdfa16fed3260ed0e7147f7cc6da11a60208b5b9406d12a635614ffd9143805460ff166117de57805460ff191660011781556040516001600160a01b038316602482015261174c90869060440160408051601f198184030181529190526020810180516001600160e01b0316631b2ce7f360e11b179052611bea565b50805460ff1916815561175d611642565b6001600160a01b0316826001600160a01b0316146117d55760405162461bcd60e51b815260206004820152602f60248201527f45524331393637557067726164653a207570677261646520627265616b73206660448201526e75727468657220757067726164657360881b606482015260840161069c565b6117de85611cd5565b5050505050565b603380546001600160a01b038381166001600160a01b0319831681179093556040519116919082907f8be0079c531659141344cd1fd0a4f28419497f9722a3daafe3b4186f6b6457e090600090a35050565b600054610100900460ff1661185e5760405162461bcd60e51b815260040161069c90612741565b611866611d15565b610d76611d3c565b600054610100900460ff166118955760405162461bcd60e51b815260040161069c90612741565b6106b98282611d6c565b600054610100900460ff166118c65760405162461bcd60e51b815260040161069c90612741565b6118ce611d15565b610d76611d15565b600054610100900460ff166118ce5760405162461bcd60e51b815260040161069c90612741565b6060816119215750506040805180820190915260018152600360fc1b602082015290565b8160005b811561194b578061193581612531565b91506119449050600a836127a2565b9150611925565b60008167ffffffffffffffff81111561196657611966611fce565b6040519080825280601f01601f191660200182016040528015611990576020820181803683370190505b5090505b84156119fb576119a56001836127b6565b91506119b2600a866127cd565b6119bd9060306127e1565b60f81b8183815181106119d2576119d2612505565b60200101906001600160f81b031916908160001a9053506119f4600a866127a2565b9450611994565b949350505050565b600061071f7f8b73c3c69bb8fe3d512ecc4cf759cc79239f7b179b0ffacaa9a75d522b39400f611a32609a5490565b609b546040805160208101859052908101839052606081018290524660808201523060a082015260009060c0016040516020818303038152906040528051906020012090509392505050565b600080825160411415611ab55760208301516040840151606085015160001a611aa987828585611dad565b94509450505050611ae7565b825160401415611adf5760208301516040840151611ad4868383611e9a565b935093505050611ae7565b506000905060025b9250929050565b805480611b3d5760405162461bcd60e51b815260206004820152601b60248201527f436f756e7465723a2064656372656d656e74206f766572666c6f770000000000604482015260640161069c565b600019019055565b803b611ba95760405162461bcd60e51b815260206004820152602d60248201527f455243313936373a206e657720696d706c656d656e746174696f6e206973206e60448201526c1bdd08184818dbdb9d1c9858dd609a1b606482015260840161069c565b7f360894a13ba1a3210667c828492db98dca3e2076cc3735a920a3ca505d382bbc80546001600160a01b0319166001600160a01b0392909216919091179055565b6060823b611c495760405162461bcd60e51b815260206004820152602660248201527f416464726573733a2064656c65676174652063616c6c20746f206e6f6e2d636f6044820152651b9d1c9858dd60d21b606482015260840161069c565b600080846001600160a01b031684604051611c649190612708565b600060405180830381855af49150503d8060008114611c9f576040519150601f19603f3d011682016040523d82523d6000602084013e611ca4565b606091505b5091509150611ccc82826040518060600160405280602781526020016127fa60279139611ec9565b95945050505050565b611cde81611b45565b6040516001600160a01b038216907fbc7cd75a20ee27fd9adebab32041f755214dbc6bffa90cc0225b39da2e5c2d3b90600090a250565b600054610100900460ff16610d765760405162461bcd60e51b815260040161069c90612741565b600054610100900460ff16611d635760405162461bcd60e51b815260040161069c90612741565b610d76336117e5565b600054610100900460ff16611d935760405162461bcd60e51b815260040161069c90612741565b815160209283012081519190920120609a91909155609b55565b6000807f7fffffffffffffffffffffffffffffff5d576e7357a4501ddfe92f46681b20a0831115611de45750600090506003611e91565b8460ff16601b14158015611dfc57508460ff16601c14155b15611e0d5750600090506004611e91565b6040805160008082526020820180845289905260ff881692820192909252606081018690526080810185905260019060a0016020604051602081039080840390855afa158015611e61573d6000803e3d6000fd5b5050604051601f1901519150506001600160a01b038116611e8a57600060019250925050611e91565b9150600090505b94509492505050565b6000806001600160ff1b03831660ff84901c601b01611ebb87828885611dad565b935093505050935093915050565b60608315611ed857508161146f565b825115611ee85782518084602001fd5b8160405162461bcd60e51b815260040161069c9190612112565b828054611f0e906125e4565b90600052602060002090601f016020900481019282611f305760008555611f76565b82601f10611f4957805160ff1916838001178555611f76565b82800160010185558215611f76579182015b82811115611f76578251825591602001919060010190611f5b565b50611f82929150611f86565b5090565b5b80821115611f825760008155600101611f87565b6001600160e01b031981168114610af157600080fd5b600060208284031215611fc357600080fd5b813561146f81611f9b565b634e487b7160e01b600052604160045260246000fd5b604051601f8201601f1916810167ffffffffffffffff8111828210171561200d5761200d611fce565b604052919050565b600082601f83011261202657600080fd5b813567ffffffffffffffff81111561204057612040611fce565b612053601f8201601f1916602001611fe4565b81815284602083860101111561206857600080fd5b816020850160208301376000918101602001919091529392505050565b60006020828403121561209757600080fd5b813567ffffffffffffffff8111156120ae57600080fd5b6119fb84828501612015565b60005b838110156120d55781810151838201526020016120bd565b83811115610a255750506000910152565b600081518084526120fe8160208601602086016120ba565b601f01601f19169290920160200192915050565b60208152600061146f60208301846120e6565b60006020828403121561213757600080fd5b5035919050565b80356001600160a01b038116811461215557600080fd5b919050565b6000806040838503121561216d57600080fd5b6121768361213e565b946020939093013593505050565b600080600080600060a0868803121561219c57600080fd5b6121a58661213e565b9450602086013593506040860135925060608601359150608086013567ffffffffffffffff8111156121d657600080fd5b6121e288828901612015565b9150509295509295909350565b6000602080838503121561220257600080fd5b823567ffffffffffffffff8082111561221a57600080fd5b818501915085601f83011261222e57600080fd5b81358181111561224057612240611fce565b8060051b9150612251848301611fe4565b818152918301840191848101908884111561226b57600080fd5b938501935b8385101561228957843582529385019390850190612270565b98975050505050505050565b6000806000606084860312156122aa57600080fd5b6122b38461213e565b92506122c16020850161213e565b9150604084013590509250925092565b6000602082840312156122e357600080fd5b61146f8261213e565b600080604083850312156122ff57600080fd5b6123088361213e565b9150602083013567ffffffffffffffff81111561232457600080fd5b61233085828601612015565b9150509250929050565b6000806040838503121561234d57600080fd5b823567ffffffffffffffff81111561236457600080fd5b61237085828601612015565b92505061237f6020840161213e565b90509250929050565b6000806040838503121561239b57600080fd5b6123a48361213e565b9150602083013580151581146123b957600080fd5b809150509250929050565b600080600080608085870312156123da57600080fd5b6123e38561213e565b93506123f16020860161213e565b925060408501359150606085013567ffffffffffffffff81111561241457600080fd5b61242087828801612015565b91505092959194509250565b60008060008060008060c0878903121561244557600080fd5b61244e8761213e565b955061245c6020880161213e565b945060408701359350606087013592506080870135915060a087013567ffffffffffffffff81111561248d57600080fd5b61249989828a01612015565b9150509295509295509295565b600080604083850312156124b957600080fd5b6124c28361213e565b915061237f6020840161213e565b6020808252818101527f4f776e61626c653a2063616c6c6572206973206e6f7420746865206f776e6572604082015260600190565b634e487b7160e01b600052603260045260246000fd5b634e487b7160e01b600052601160045260246000fd5b60006000198214156125455761254561251b565b5060010190565b6020808252602c908201527f46756e6374696f6e206d7573742062652063616c6c6564207468726f7567682060408201526b19195b1959d85d1958d85b1b60a21b606082015260800190565b6020808252602c908201527f46756e6374696f6e206d7573742062652063616c6c6564207468726f7567682060408201526b6163746976652070726f787960a01b606082015260800190565b600181811c908216806125f857607f821691505b6020821081141561261957634e487b7160e01b600052602260045260246000fd5b50919050565b600081516126318185602086016120ba565b9290920192915050565b600080845481600182811c91508083168061265757607f831692505b602080841082141561267757634e487b7160e01b86526022600452602486fd5b81801561268b576001811461269c576126c9565b60ff198616895284890196506126c9565b60008b81526020902060005b868110156126c15781548b8201529085019083016126a8565b505084890196505b505050505050611ccc818561261f565b634e487b7160e01b600052602160045260246000fd5b8281526040602082015260006119fb60408301846120e6565b6000825161271a8184602087016120ba565b9190910192915050565b60006020828403121561273657600080fd5b815161146f81611f9b565b6020808252602b908201527f496e697469616c697a61626c653a20636f6e7472616374206973206e6f74206960408201526a6e697469616c697a696e6760a81b606082015260800190565b634e487b7160e01b600052601260045260246000fd5b6000826127b1576127b161278c565b500490565b6000828210156127c8576127c861251b565b500390565b6000826127dc576127dc61278c565b500690565b600082198211156127f4576127f461251b565b50019056fe416464726573733a206c6f772d6c6576656c2064656c65676174652063616c6c206661696c6564a2646970667358221220c42590ca66310b3c034a2e918f78fe62f3ccbc03440edbe10b5de70ba0b1949d64736f6c634300080a0033",
  "devdoc": {
    "kind": "dev",
    "methods": {
      "owner()": {
        "details": "Returns the address of the current owner."
      },
      "renounceOwnership()": {
        "details": "Leaves the contract without owner. It will not be possible to call `onlyOwner` functions anymore. Can only be called by the current owner. NOTE: Renouncing ownership will leave the contract without an owner, thereby removing any functionality that is only available to the owner."
      },
      "transferOwnership(address)": {
        "details": "Transfers ownership of the contract to a new account (`newOwner`). Can only be called by the current owner."
      },
      "upgradeTo(address)": {
        "details": "Upgrade the implementation of the proxy to `newImplementation`. Calls {_authorizeUpgrade}. Emits an {Upgraded} event."
      },
      "upgradeToAndCall(address,bytes)": {
        "details": "Upgrade the implementation of the proxy to `newImplementation`, and subsequently execute the function call encoded in `data`. Calls {_authorizeUpgrade}. Emits an {Upgraded} event."
      }
    },
    "version": 1
  },
  "userdoc": {
    "events": {
      "NewSigner(address)": {
        "notice": "Event for when a new signer is assigned"
      }
    },
    "kind": "user",
    "methods": {
      "addressToId(address)": {
        "notice": "Stores address to membership id"
      },
      "adminMint(address,uint256)": {
        "notice": "Mint mew membership from the signer account"
      },
      "adminRevokeMemberships(uint256[])": {
        "notice": "Admin function to revoke membership for user"
      },
      "approve(address,uint256)": {
        "notice": "approvals not supported"
      },
      "balanceOf(address)": {
        "notice": "blanaceOf getter for NFT compat"
      },
      "getApproved(uint256)": {
        "notice": "approvals not supported"
      },
      "idToAddress(uint256)": {
        "notice": "Stores membership id to address"
      },
      "initialize(string,address)": {
        "notice": "Upgradeable init fn"
      },
      "isApprovedForAll(address,address)": {
        "notice": "approvals not supported"
      },
      "mintWithSign(address,uint256,uint256,uint256,bytes)": {
        "notice": "Mint with signed message data"
      },
      "name()": {
        "notice": "NFT Metadata Name"
      },
      "ownerOf(uint256)": {
        "notice": "ownerOf getter, checks if token exists"
      },
      "safeTransferFrom(address,address,uint256)": {
        "notice": "not supported"
      },
      "safeTransferFrom(address,address,uint256,bytes)": {
        "notice": "not supported"
      },
      "setApprovalForAll(address,bool)": {
        "notice": "approvals not supported"
      },
      "setSigner(address)": {
        "notice": "An owner can set a signer user that can manage memberships"
      },
      "signer()": {
        "notice": "Address for signer"
      },
      "supportsInterface(bytes4)": {
        "notice": "Supports ERC721, ERC165"
      },
      "symbol()": {
        "notice": "NFT Metadata Symbol"
      },
      "tokenURI(uint256)": {
        "notice": "Getter for url server nft base"
      },
      "totalSupply()": {
        "notice": "erc721 enumerable partial impl"
      },
      "transferFrom(address,address,uint256)": {
        "notice": "Admin function to transfer a wallet to a new NFT address"
      },
      "transferWithSign(address,address,uint256,uint256,uint256,bytes)": {
        "notice": "Transfer with signed message data"
      },
      "updateUrlBase(string)": {
        "notice": "admin function to update base uri"
      },
      "urlBase()": {
        "notice": "URLBase for metadata"
      }
    },
    "version": 1
  },
  "storageLayout": {
    "storage": [
      {
        "astId": 554,
        "contract": "contracts/FWBMembershipNFT.sol:FWBMembershipNFT",
        "label": "_initialized",
        "offset": 0,
        "slot": "0",
        "type": "t_bool"
      },
      {
        "astId": 557,
        "contract": "contracts/FWBMembershipNFT.sol:FWBMembershipNFT",
        "label": "_initializing",
        "offset": 1,
        "slot": "0",
        "type": "t_bool"
      },
      {
        "astId": 1163,
        "contract": "contracts/FWBMembershipNFT.sol:FWBMembershipNFT",
        "label": "__gap",
        "offset": 0,
        "slot": "1",
        "type": "t_array(t_uint256)50_storage"
      },
      {
        "astId": 10,
        "contract": "contracts/FWBMembershipNFT.sol:FWBMembershipNFT",
        "label": "_owner",
        "offset": 0,
        "slot": "51",
        "type": "t_address"
      },
      {
        "astId": 124,
        "contract": "contracts/FWBMembershipNFT.sol:FWBMembershipNFT",
        "label": "__gap",
        "offset": 0,
        "slot": "52",
        "type": "t_array(t_uint256)49_storage"
      },
      {
        "astId": 2164,
        "contract": "contracts/FWBMembershipNFT.sol:FWBMembershipNFT",
        "label": "__gap",
        "offset": 0,
        "slot": "101",
        "type": "t_array(t_uint256)50_storage"
      },
      {
        "astId": 2604,
        "contract": "contracts/FWBMembershipNFT.sol:FWBMembershipNFT",
        "label": "numberTokens",
        "offset": 0,
        "slot": "151",
        "type": "t_struct(Counter)1170_storage"
      },
      {
        "astId": 2609,
        "contract": "contracts/FWBMembershipNFT.sol:FWBMembershipNFT",
        "label": "addressToId",
        "offset": 0,
        "slot": "152",
        "type": "t_mapping(t_address,t_uint256)"
      },
      {
        "astId": 2614,
        "contract": "contracts/FWBMembershipNFT.sol:FWBMembershipNFT",
        "label": "idToAddress",
        "offset": 0,
        "slot": "153",
        "type": "t_mapping(t_uint256,t_address)"
      },
      {
        "astId": 1979,
        "contract": "contracts/FWBMembershipNFT.sol:FWBMembershipNFT",
        "label": "_HASHED_NAME",
        "offset": 0,
        "slot": "154",
        "type": "t_bytes32"
      },
      {
        "astId": 1981,
        "contract": "contracts/FWBMembershipNFT.sol:FWBMembershipNFT",
        "label": "_HASHED_VERSION",
        "offset": 0,
        "slot": "155",
        "type": "t_bytes32"
      },
      {
        "astId": 2118,
        "contract": "contracts/FWBMembershipNFT.sol:FWBMembershipNFT",
        "label": "__gap",
        "offset": 0,
        "slot": "156",
        "type": "t_array(t_uint256)50_storage"
      },
      {
        "astId": 536,
        "contract": "contracts/FWBMembershipNFT.sol:FWBMembershipNFT",
        "label": "__gap",
        "offset": 0,
        "slot": "206",
        "type": "t_array(t_uint256)50_storage"
      },
      {
        "astId": 731,
        "contract": "contracts/FWBMembershipNFT.sol:FWBMembershipNFT",
        "label": "__gap",
        "offset": 0,
        "slot": "256",
        "type": "t_array(t_uint256)50_storage"
      },
      {
        "astId": 2208,
        "contract": "contracts/FWBMembershipNFT.sol:FWBMembershipNFT",
        "label": "urlBase",
        "offset": 0,
        "slot": "306",
        "type": "t_string_storage"
      },
      {
        "astId": 2211,
        "contract": "contracts/FWBMembershipNFT.sol:FWBMembershipNFT",
        "label": "signer",
        "offset": 0,
        "slot": "307",
        "type": "t_address"
      },
      {
        "astId": 2424,
        "contract": "contracts/FWBMembershipNFT.sol:FWBMembershipNFT",
        "label": "usedNonces",
        "offset": 0,
        "slot": "308",
        "type": "t_mapping(t_uint256,t_bool)"
      }
    ],
    "types": {
      "t_address": {
        "encoding": "inplace",
        "label": "address",
        "numberOfBytes": "20"
      },
      "t_array(t_uint256)49_storage": {
        "base": "t_uint256",
        "encoding": "inplace",
        "label": "uint256[49]",
        "numberOfBytes": "1568"
      },
      "t_array(t_uint256)50_storage": {
        "base": "t_uint256",
        "encoding": "inplace",
        "label": "uint256[50]",
        "numberOfBytes": "1600"
      },
      "t_bool": {
        "encoding": "inplace",
        "label": "bool",
        "numberOfBytes": "1"
      },
      "t_bytes32": {
        "encoding": "inplace",
        "label": "bytes32",
        "numberOfBytes": "32"
      },
      "t_mapping(t_address,t_uint256)": {
        "encoding": "mapping",
        "key": "t_address",
        "label": "mapping(address => uint256)",
        "numberOfBytes": "32",
        "value": "t_uint256"
      },
      "t_mapping(t_uint256,t_address)": {
        "encoding": "mapping",
        "key": "t_uint256",
        "label": "mapping(uint256 => address)",
        "numberOfBytes": "32",
        "value": "t_address"
      },
      "t_mapping(t_uint256,t_bool)": {
        "encoding": "mapping",
        "key": "t_uint256",
        "label": "mapping(uint256 => bool)",
        "numberOfBytes": "32",
        "value": "t_bool"
      },
      "t_string_storage": {
        "encoding": "bytes",
        "label": "string",
        "numberOfBytes": "32"
      },
      "t_struct(Counter)1170_storage": {
        "encoding": "inplace",
        "label": "struct CountersUpgradeable.Counter",
        "members": [
          {
            "astId": 1169,
            "contract": "contracts/FWBMembershipNFT.sol:FWBMembershipNFT",
            "label": "_value",
            "offset": 0,
            "slot": "0",
            "type": "t_uint256"
          }
        ],
        "numberOfBytes": "32"
      },
      "t_uint256": {
        "encoding": "inplace",
        "label": "uint256",
        "numberOfBytes": "32"
      }
    }
  }
}